:10000000D6C10000F5C10000F3C10000F1C100003D
:10001000EFC10000EDC10000EBC10000E9C100002C
:10002000E7C10000E5C10000E3C10000E1C100003C
:10003000DFC10000DDC10000DBC10000D9C100004C
:10004000D7C10000D5C10000D3C10000D1C100005C
:10005000CFC10000CDC10000CBC10000C9C100006C
:10006000C7C10000C5C10000C3C10000C1C100007C
:10007000BFC10000BDC10000BBC10000B9C100008C
:10008000B7C10000B5C10000B3C10000B1C100009C
:100090000C942935ADC10000ABC10000A9C100001E
:1000A000A7C10000A5C10000A3C10000A1C10000BC
:1000B0009FC100009DC100009BC1000099C10000CC
:1000C00097C1000095C1000093C1000091C10000DC
:1000D0008FC100008DC100008BC1000089C10000EC
:1000E00087C10000600D6B0D760D810D8C0D990D93
:1000F000B20DBD0DC80DD30DDE0DE90D0F0E1A0E9C
:10010000250E300E850E3B0E460E530E5E0E690E0A
:10011000850E850E850E850E780ECA0ED50EE00E64
:10012000EB0EF60E010F0C0F170FC11EAF1FAF1F06
:10013000AF1FAF1FAF1FAF1FAF1FAF1FAF1FAF1F4F
:10014000AF1FAF1FAF1FAF1FAF1FCA1ED31EAF1F02
:10015000AF1FAF1FAF1FAF1FAF1FAF1FAF1FAF1F2F
:10016000AF1FAF1FAF1FAF1FAF1FAF1FAF1FAF1F1F
:10017000AF1FAF1FAF1FAF1FAF1FAF1FAF1FAF1F0F
:10018000AF1FAF1FAF1FAF1FAF1FDC1EAF1FAF1FD3
:10019000AF1FAF1FAF1FAF1FAF1FAF1FAF1FAF1FEF
:1001A000AF1FAF1FAF1FAF1FAF1FAF1FE51EAF1FAA
:1001B000AF1FAF1FAF1FAF1FAF1FAF1FAF1FAF1FCF
:1001C000AF1FAF1FAF1FAF1FAF1FEE1EF71E001FE9
:1001D000091F121F892092209B20A420AD20B62049
:1001E000BF20C820D120DA20E320202129215C2E45
:1001F000652E6E2E752E7E2E872E902E992EA22E77
:10020000A92EB02EF62EFD2E042F0B2F24302730D2
:100210002E30313034304E3061315A3072309630B9
:1002200099309C309F30A230AF30C130CD30F030AB
:10023000FC3007634236B79BD8A71A39685618AE08
:10024000BAAB558C1D3CB7CC5763BD6DEDFD753E0B
:10025000F6177231BF000000803F08000000BE9218
:100260002449123EABAAAA2ABECDCCCC4C3E0000FB
:100270000080BEABAAAAAA3E00000000BF0000009A
:10028000803F0000000000084178D3BB4387D113B2
:100290003D190E3CC3BD4282AD2B3E68EC8276BE5A
:1002A000D98FE1A93E4C80EFFFBE01C4FF7F3F0024
:1002B0000000000000407A10F35A00A0724E1809A6
:1002C0000010A5D4E80000E87648170000E40B54BD
:1002D000020000CA9A3B000000E1F505000080968C
:1002E0009800000040420F000000A08601000000BE
:1002F000102700000000E803000000006400000078
:1003000000000A00000000000100000000002C7640
:10031000D888DC674F0823DFC1DFAE59E1B1B7965B
:10032000E5E3E453C63AE651997696E8E6C28426B8
:10033000EB898C9B62ED407C6FFCEFBC9C9F40F294
:10034000BAA56FA5F490055A2AF75C936B6CF96710
:100350006DC11BFCE0E40D47FEF520E6B500D0EDD5
:10036000902E0300943577050080841E080000203D
:100370004E0A000000C80C333333330F986E1283DB
:100380001141EF8D2114893BE65516CFFEE6DB18AF
:10039000D1844B381BF77C1D901DA4BBE424203274
:1003A00084725E228100C9F124ECA1E53D2711246D
:1003B0001FBECFEFD1E2DEBFCDBF00E00CBF1BE020
:1003C000A0E0B2E0ECE8FEE700E00BBF02C007905F
:1003D0000D92A238B107D9F72DE0A2E8BBE001C029
:1003E0001D92A93AB207E1F70E94DB320C94443F18
:1003F00007CECF92DF92EF92FF920F931F93CF938E
:10040000DF93CDB7DEB7C554D1090FB6F894DEBF80
:100410000FBECDBF22961FAE229723961FAE239705
:1004200024961FAE24978091D50B813041F487E349
:1004300022968FAF229724968FAF249716C08230D2
:1004400068F087E322968FAF229782E023968FAFE2
:10045000239789E324968FAF249707C08DE292E01B
:100460000E94DF340E940A35E1C063E0CE018F5B59
:100470009F4F0E94E6358091AF0B811106C00E940C
:10048000B6358091AF0B8823D1F38091AF0B8823D1
:1004900009F4BFC08091B40C8111BBC08091930C52
:1004A000823008F4C3C00E941B368AE08093A80BF8
:1004B000ADEBBBE0E9ECFBE01D92EA17FB07E1F7CF
:1004C00085ED9BE011928E179F07E1F70F2EFEE15D
:1004D000EF2EFCE0FF2EF02DF7019281848106EBD8
:1004E0001BE02081F8012483958386838DE392E0CD
:1004F0000E94DF348AEB9BE00E94DF34F701A08585
:10050000D284C48476856089528944893689208D55
:10051000928D848DB681F801B783A087D186C2867B
:1005200073876487558746873787208B918B828BAB
:1005300086EA93E00E94DF348DEB9BE00E94DF347B
:10054000F701A0A1D2A0C4A076A160A552A544A5A0
:1005500036A520A992A984A9B68DF801B38BA48BE6
:10056000D58AC68A778B608F518F428F338F248FC5
:10057000958F868F86EA93E00E94DF3489EC9BE0BA
:100580000E94DF34F70186A925968FAF259780ADAD
:1005900026968FAF2697CE018C5B9F4F0E94A53188
:1005A000F801808391832091D50B223091F4209122
:1005B000930C213271F420915C0C30E0322F222711
:1005C00040915E0C242B322F31703383269521709D
:1005D0002283E6EBFBE023811F922F9322811F925F
:1005E0002F939F938F938CE796E09F938F938E0129
:1005F0000F5F1F4F1F930F930E94F439C8010E9491
:10060000DF340E940A350FB6F894DEBF0FBECDBFAF
:100610000DC084E492E00E94DF340E940A3580918C
:10062000A80B882319F081508093A80BCB5BDF4F78
:100630000FB6F894DEBF0FBECDBFDF91CF911F91F3
:100640000F91FF90EF90DF90CF900895CF93DF93BD
:10065000CDB7DEB727970FB6F894DEBF0FBECDBF7C
:1006600080E592E00E94DF3487E3898381E08A831A
:100670001B821C821D828091710C880F8E83885C86
:100680008F8367E0CE0101960E94E6358091AF0B23
:10069000811106C00E94B6358091AF0B8823D1F33B
:1006A0008091AF0B882391F08091B40C81110EC022
:1006B0008AE08093A80B8091930C813039F480916B
:1006C0001E0C811103C00E941D3509C00E942535F2
:1006D0008091A80B882319F081508093A80B27964E
:1006E0000FB6F894DEBF0FBECDBFDF91CF91089556
:1006F000CF93DF9300D0CDB7DEB787E3898383E064
:100700008A838AE38B8363E0CE0101960E94E635FB
:100710008091AF0B811106C00E94B6358091AF0B5E
:100720008823D1F38091AF0B882329F18091B40CF9
:10073000811121C08AE08093A80B8091930C8330B3
:10074000D1F4EEE1FCE0408150E0542F4427828157
:10075000482BEEEEFBE080E090E09A01082E02C00C
:10076000369527950A94E2F72170219301968031FE
:10077000910599F70DC08FE592E00E94DF340E9449
:100780000A358091A80B882319F081508093A80B1B
:100790000F900F900F90DF91CF910895EF92FF92FD
:1007A0000F931F93CF93DF93CDB7DEB765970FB647
:1007B000F894DEBF0FBECDBF87E3898384E08A83D0
:1007C000E9E6FCE0868197819B838C836481758157
:1007D000DE011596AE014B5E5F4F2CEF3FEF03E05D
:1007E00010E0FE013196C9018E1B9F0B8A0F9B1FE3
:1007F0007B0102C0F694E7948A95E2F7E0FC02C020
:10080000812F01C0802F8D93A417B50751F780E089
:1008100090E02191820F911DE417F507D1F78D8BA0
:1008200065E1CE0101960E94E6358091AF0B811102
:1008300006C00E94B6358091AF0B8823D1F382E7C2
:1008400092E00E94DF348091AF0B882391F0809179
:10085000B40C81110EC08AE08093A80B8091930C98
:10086000813039F480911E0C811103C00E941D3526
:1008700009C00E9425358091A80B882319F081506A
:100880008093A80B65960FB6F894DEBF0FBECDBF60
:10089000DF91CF911F910F91FF90EF900895CF932B
:1008A000DF93CDB7DEB765970FB6F894DEBF0FBE06
:1008B000CDBF87E3898384E08A831B821C82FE018B
:1008C0003596AE014B5E5F4F11924E175F07E1F711
:1008D000FE01319680E090E02191820F911DE41796
:1008E000F507D1F78D8B65E1CE0101960E94E635C3
:1008F0008091AF0B811106C00E94B6358091AF0B7D
:100900008823D1F383E892E00E94DF348091AF0B1B
:10091000882391F08091B40C81110EC08AE08093FD
:10092000A80B8091930C813039F480911E0C8111B9
:1009300003C00E941D3509C00E9425358091A80B77
:10094000882319F081508093A80B65960FB6F89410
:10095000DEBF0FBECDBFDF91CF9108952F923F92A2
:100960004F925F926F927F928F929F92AF92BF92BF
:10097000CF92DF92EF92FF920F931F93CF93DF936B
:10098000CDB7DEB7CF54D1090FB6F894DEBF0FBE96
:10099000CDBF2DB73EB760963FAF2EAF609787E3D0
:1009A000898385E08A838CE38B8363E0CE010196A3
:1009B0000E94E6358091AF0B811106C00E94B635CA
:1009C0008091AF0B8823D1F38091AF0B882309F47A
:1009D0000AC18091B40C811106C18091930C8230C0
:1009E00008F40EC10E941B368AE08093A80BEEE14A
:1009F000FCE0808190E0982F88272281AC01422B77
:100A00002E965FAF4EAF2E978091930C90E001979A
:100A100003970CF4F5C00F2EF2E24F2EFCE05F2E90
:100A2000F02D6894222421F8312CCE0104962696CC
:100A30009FAF8EAF26976DB67EB6F201E080F12CA7
:100A4000FE2CEE248281E82AC10102976C011AF47F
:100A5000FFEFCF1ADF0AD594C7946091DA0BA62E68
:100A6000B12CC50106962DB73EB7281B390B0FB622
:100A7000F8943EBF0FBE2DBF4DB75EB74F5F5F4FBF
:100A800028965FAF4EAF28974601992470E080E02A
:100A900090E00E9490369B01AC0160E070E080E243
:100AA00091E40E9481372C966CAF7DAF8EAF9FAFE3
:100AB0002C97F401EE0FFF1FEB52F44F61A572A5C6
:100AC00080E090E00E9490362C962CAD3DAD4EAD6E
:100AD0005FAD2C970E9428362C966CAF7DAF8EAF01
:100AE0009FAF2C976091D80B7091D90B80E090E06C
:100AF0000E9490369B01AC012C966CAD7DAD8EAD05
:100B00009FAD2C970E941E3727960FAD27972896EA
:100B10001FAD2897950140E050E00E94763981E0B2
:100B200090E002C0880F991FCA94E2F76C012E96DC
:100B30008EAD9FAD2E978C219D219F938F93FF9219
:100B4000EF9228969FAD28979F932796EFAD279712
:100B5000EF93FFEF8F1A9F0A9F928F9226E932E060
:100B60003F932F9326965FAD26975F9325968FAD83
:100B700025978F930E94F439EDB7FEB73C960FB6D8
:100B8000F894FEBF0FBEEDBFEF2899F481E090E02E
:100B9000CA94CD2811F080E090E02E962EAD3FADA6
:100BA0002E9782239323892B21F08BE492E00E94DD
:100BB000DF34CE0104960E94DF340E940A350FB65E
:100BC000F8947EBE0FBE6DBE32E0230E311C8091C4
:100BD000930C44E0440E511C90E00197281639060E
:100BE0000CF429CF0DC08DEA92E00E94DF340E9400
:100BF0000A358091A80B882319F081508093A80BA7
:100C000060968EAD9FAD60970FB6F8949EBF0FBEF5
:100C10008DBFC15BDF4F0FB6F894DEBF0FBECDBFF7
:100C2000DF91CF911F910F91FF90EF90DF90CF90C8
:100C3000BF90AF909F908F907F906F905F904F90FC
:100C40003F902F900895CF93DF9300D000D0CDB781
:100C5000DEB79091D50B923008F455C09091A70B58
:100C6000923039F48DEB92E00E94DF340E940A3515
:100C700050C097E3998396E09A838B837C836D833E
:100C8000680F635C670F6E8366E0CE0101960E9479
:100C9000E6358091AF0B811106C00E94B635809178
:100CA000AF0B8823D1F382ED92E00E94DF34809174
:100CB000AF0B8823F1F08091B40C81111AC08AE047
:100CC0008093A80B80911E0C882319F08F3F39F078
:100CD00009C083E08093A70B0E941D351AC00E94B3
:100CE000213517C082EA94E00E94DF340E940A3561
:100CF00010C00E9425358091A80B882351F08150A7
:100D00008093A80B06C08FED92E00E94DF340E9412
:100D10000A3526960FB6F894DEBF0FBECDBFDF9121
:100D2000CF910895CF93DF9300D01F921F92CDB73C
:100D3000DEB72091D50B223008F450C02091A70BCC
:100D4000223039F482EF92E00E94DF340E940A35AB
:100D50004BC027E3298327E02A839B838C83825C13
:100D6000980F9D8365E0CE0101960E94E635809143
:100D7000AF0B811106C00E94B6358091AF0B88235E
:100D8000D1F388E093E00E94DF348091AF0B882399
:100D9000D9F08091B40C811117C08AE08093A80B20
:100DA00080911E0C882319F08F3F21F006C00E940D
:100DB0001D351AC00E94213517C082EA94E00E94B6
:100DC000DF340E940A3510C00E9425358091A80B9F
:100DD000882351F081508093A80B06C086E193E0F0
:100DE0000E94DF340E940A350F900F900F900F90F1
:100DF0000F90DF91CF9108952F923F924F925F9283
:100E00006F927F928F929F92AF92BF92CF92DF921A
:100E1000EF92FF920F931F93CF93DF93CDB7DEB77F
:100E2000C954D1090FB6F894DEBF0FBECDBF2DB6A1
:100E30003EB68091D50B823008F4FFC087E322963E
:100E40008FAF229788E023968FAF23978FE3249666
:100E50008FAF249763E0CE018F5B9F4F0E94E635F2
:100E60008091AF0B811106C00E94B6358091AF0B07
:100E70008823D1F38091AF0B882309F4D0C08091EF
:100E8000B40C8111CCC080911F0C8111C1C00E9493
:100E90001B368AE08093A80B8091930C90E0019719
:100EA000181619060CF0B2C00F2EFEE1CF2EFCE092
:100EB000DF2EF02DE12CF12CF6018081882309F43E
:100EC00097C04DB65EB690E0982F882722813C01EE
:100ED000622A6091DA0B862E912CC40106962DB7FA
:100EE0003EB7281B390B0FB6F8943EBF0FBE2DBF7F
:100EF0008DB79EB7019626969FAF8EAF2697C701F6
:100F000002975C011AF4EFEFAE1ABE0AB594A794EB
:100F1000BB2470E080E090E00E9490369B01AC0121
:100F200060E070E080E291E40E9481372A966CAF25
:100F30007DAF8EAF9FAF2A97F501EE0FFF1FEB52EB
:100F4000F44F61A572A580E090E00E9490362A9649
:100F50002CAD3DAD4EAD5FAD2A970E9428362A9646
:100F60006CAF7DAF8EAF9FAF2A976091D80B709119
:100F7000D90B80E090E00E9490369B01AC012A964C
:100F80006CAD7DAD8EAD9FAD2A970E941E37259624
:100F90000FAD259726961FAD2697940140E050E0AF
:100FA0000E9476397F926F922696FFAD2697FF9327
:100FB00025962FAD25972F933FEFA31AB30ABF9223
:100FC000AF928AE293E09F938F9321E030E02C0F61
:100FD0003D1F3F932F930E94F439CE0101960E944A
:100FE000DF340E940A350FB6F8945EBE0FBE4DBEC8
:100FF00032E0E30EF11C8091930C94E0C90ED11CF9
:1010000090E00197E816F9060CF456CFA7DC1BC058
:101010008AE393E00E94DF340E940A3514C086E41C
:1010200093E00E94DF340E940A358091A80B882348
:1010300051F081508093A80B06C082E593E00E9496
:10104000DF340E940A350FB6F8943EBE0FBE2DBEA7
:10105000C75BDF4F0FB6F894DEBF0FBECDBFDF9189
:10106000CF911F910F91FF90EF90DF90CF90BF90A5
:10107000AF909F908F907F906F905F904F903F9038
:101080002F9008952F923F924F925F926F927F928E
:101090008F929F92AF92BF92CF92DF92EF92FF9288
:1010A0000F931F93CF93DF93CDB7DEB7C754D1090A
:1010B0000FB6F894DEBF0FBECDBFEDB6FEB6809181
:1010C000D50B823008F4C6C087E322968FAF2297F3
:1010D00089E023968FAF239780E424968FAF2497DF
:1010E00063E0CE018F5B9F4F0E94E6358091AF0B8E
:1010F000811106C00E94B6358091AF0B8823D1F3D1
:101100008091AF0B882309F497C08091B40C8111B2
:1011100093C080911F0C811176C08DB69EB60E943F
:101120001B368AE08093A80BEEE1FCE0008110E022
:10113000102F00278281082B0F2EF5EDAF2EFBE03C
:10114000BF2EF02DF5016581C62ED12CC601069665
:101150002DB73EB7281B390B0FB6F8943EBF0FBE14
:101160002DBF8DB79EB701961C0170E080E090E026
:101170000E9490369B01AC0160E070E080E291E457
:101180000E9481372B013C01F5016381748180E06D
:1011900090E00E94903628966CAF7DAF8EAF9FAFE7
:1011A0002897B80180E090E00E949036A301920158
:1011B0000E9428369B01AC0128966CAD7DAD8EADAA
:1011C0009FAD28970E941E37022D132D960140E0F7
:1011D00050E00E9476393F922F9280E693E09F93F1
:1011E0008F938E010F5F1F4F1F930F930E94F4394F
:1011F000C8010E94DF340E940A350FB6F8949EBEE3
:101200000FBE8DBE2DC080911E0C81110BC08AE6D1
:1012100093E00E94DF340E940A3581E08093A70B9F
:10122000EBDD1EC084E793E00E94DF340E940A35A4
:1012300081E08093A70B14C08EE793E00E94DF3417
:101240000E940A358091A80B882351F08150809329
:10125000A80B06C08AE893E00E94DF340E940A359A
:101260000FB6F894FEBE0FBEEDBEC95BDF4F0FB6E2
:10127000F894DEBF0FBECDBFDF91CF911F910F91CC
:10128000FF90EF90DF90CF90BF90AF909F908F90A6
:101290007F906F905F904F903F902F900895CF93E5
:1012A000DF9300D0CDB7DEB795E399838A838B5C5B
:1012B0008B8363E0CE0101960E94E6358091AF0BEF
:1012C000811106C00E94B6358091AF0B8823D1F3FF
:1012D00088E993E00E94DF348091AF0B8823A9F066
:1012E0008091B40C811111C08AE08093A80B809189
:1012F0001E0C811107C080911F0C882319F00E94D9
:101300001D350CC00E94253509C00E9425358091ED
:10131000A80B882319F081508093A80B0F900F9091
:101320000F90DF91CF910895CF93DF9300D0CDB789
:10133000DEB787E389838AE08A8381E48B8363E075
:10134000CE0101960E94E6358091AF0B811106C057
:101350000E94B6358091AF0B8823D1F380EA93E0E9
:101360000E94DF348091AF0B8823A9F08091B40CE8
:10137000811111C08AE08093A80B80911E0C81110D
:1013800007C080911F0C882319F00E941D350CC0E6
:101390000E94253509C00E9425358091A80B88231D
:1013A00019F081508093A80B0F900F900F90DF9150
:1013B000CF9108952F923F924F925F926F927F92BA
:1013C0008F929F92AF92BF92CF92DF92EF92FF9255
:1013D0000F931F93CF93DF93CDB7DEB7C255D109DB
:1013E0000FB6F894DEBF0FBECDBF6DB67EB681E3FB
:1013F00089838A8362E0CE0101960E94E63580915E
:10140000AF0B811106C00E94B6358091AF0B8823C7
:10141000D1F38091AF0B882309F4EDC18091B40C16
:101420008111ECC18091930C823008F429C20E9492
:101430001B368AE08093A80B0F2EF5EDCF2EFBE034
:10144000DF2EF02D0EE11CE0F8018081F601808393
:10145000F801828124968FAF2497848125968FAFDF
:101460002597CE018D5B9F4F0E94A531F601928397
:101470008183F8018680912C982C88248085882A85
:10148000F60194828382F8016285F6016583F80192
:101490002685848590E0022E02C0880F991F0A9449
:1014A000E2F7822BF60197838683F801A089B0E0EA
:1014B000BA2FAA278289A82B0F2EFEEDAF2EFBE0B4
:1014C000BF2EF02DF50180E090E001E010E051E04A
:1014D00070E09801082E02C0220F331F0A94E2F731
:1014E0002A233B23452F232B09F4472F41930196B1
:1014F0008031910571F781E09091320C9F3F09F0A6
:1015000080E08093DD0B8091930C90E001970C9725
:10151000A4F0E4E3FCE0AEEFBBE02BE030E0808140
:1015200090E08D939D932F5F3F4F8091930C329667
:1015300090E001972817390794F3462E512C2DB7C8
:101540003EB761963FAF2EAF6197C2010696EDB7E9
:10155000FEB7E81BF90B0FB6F894FEBF0FBEEDBF48
:101560002DB73EB72F5F3F4F690170E080E090E0FC
:101570000E9490369B01AC0160E070E080E291E453
:101580000E94813729966CAF7DAF8EAF9FAF2997B0
:10159000B40180E090E00E94903629962CAD3DADDC
:1015A0004EAD5FAD29970E9428360C2D1D2D92015E
:1015B00040E050E00E947639E5EDFBE080851F9227
:1015C0008F9387818F9386818F9385811F928F93CD
:1015D000DF92CF9282818F9381818F9380811F923E
:1015E0008F9388EA93E09F938F938E010D5F1F4F37
:1015F0001F930F930E94F439C8010E94DF340E94A8
:101600000A350E94F9018DB79EB740960FB6F8943F
:101610009EBF0FBE8DBF8091B80B813009F01DC1F8
:1016200067D81BC1742CF50181915F01FFEF4F1A40
:101630005F0A813009F0C9C0EDB6FEB66091DA0BE1
:10164000862E912CC40106962DB73EB7281B390B68
:101650000FB6F8943EBF0FBE2DBF8DB79EB7019653
:1016600027969FAF8EAF2797C4018196EDB7FEB73F
:10167000E81BF90B0FB6F894FEBF0FBEEDBF2DB7F8
:101680003EB72F5F3F4F2B963FAF2EAF2B9770E0AB
:1016900080E090E00E9490369B01AC0160E070E039
:1016A00080E291E40E9481372F966CAF7DAF8EAFC0
:1016B0009FAF2F97F1016081718180E090E00E94DF
:1016C00090362F962CAD3DAD4EAD5FAD2F970E945D
:1016D00028362F966CAF7DAF8EAF9FAF2F9760915E
:1016E000D80B7091D90B80E090E00E9490369B015E
:1016F000AC012F966CAD7DAD8EAD9FAD2F970E9446
:101700001E3726960FAD269727961FAD2797940173
:1017100040E050E00E947639F60186819781072CDF
:1017200002C0969587950A94E2F7817099279F9356
:101730008F93808590E0072C02C0959587950A9439
:10174000E2F7817099279F938F9382819381072C71
:1017500002C0969587950A94E2F7817099279F9326
:101760008F938081918102C0969587957A94E2F754
:10177000817099279F938F93F50187851F928F938F
:101780002796FFAD2797FF9326962FAD26972F9389
:101790005F924F9281EC93E09F938F932B96FFADD6
:1017A0002B97FF932A962FAD2A972F930E94F439F7
:1017B0002A968FAD2A972B969FAD2B970E94DF34E8
:1017C0000FB6F894FEBE0FBEEDBE32E0230E311C04
:1017D00080E14816510409F025CF63966EAC7FACCA
:1017E00063976196EEADFFAD61970FB6F894FEBFBB
:1017F0000FBEEDBF45C0C12CD12C02C0C12CD12CD5
:1018000003EE13E05E01F3E0AF0EB11C0F2EF7EA1A
:101810008F2EFBE09F2EF02D2FEFC21AD20ADF92FF
:10182000CF921F930F93BF92AF920E94F439C501DC
:101830000E94DF340E940A35F40181810F900F90DD
:101840000F900F900F900F90882311F0815081839B
:10185000F3E0CF16D10401F713C00F2EFEEF2F2EA9
:10186000FBE03F2EF02D412C512C0F2EF9E6CF2E10
:10187000FCE0DF2EF02D63967FAE6EAE6397D2CE86
:101880000FB6F8947EBE0FBE6DBECE5ADF4F0FB6B8
:10189000F894DEBF0FBECDBFDF91CF911F910F91A6
:1018A000FF90EF90DF90CF90BF90AF909F908F9080
:1018B0007F906F905F904F903F902F9008950F937F
:1018C0001F93CF93DF93CDB7DEB7A2970FB6F894EF
:1018D000DEBF0FBECDBF86E389838A8362E0CE017F
:1018E00001960E94E6358091AF0B811106C00E94DF
:1018F000B6358091AF0B8823D1F38091AF0B88234D
:10190000D9F18091B40C811137C08091930C833050
:1019100041F50E941B368AE08093A80B1F921F920C
:10192000EEE1FCE080818F7790E0982F882722817C
:10193000822B9F938F938EEE93E09F938F938E01D4
:101940000D5F1F4F1F930F930E94F439C8010E942F
:10195000DF340E940A350FB6F894DEBF0FBECDBF4C
:1019600018C080911E0C811114C08FEF93E00E946B
:10197000DF340E940A350DC08AE094E00E94DF3413
:101980000E940A358091A80B882319F0815080931A
:10199000A80BA2960FB6F894DEBF0FBECDBFDF91A5
:1019A000CF911F910F9108952F923F924F925F9286
:1019B0006F927F928F929F92AF92BF92CF92DF925F
:1019C000EF92FF920F931F93CF93DF93CDB7DEB7C4
:1019D000CD58D1090FB6F894DEBF0FBECDBF2DB7DD
:1019E0003EB7C457DF4F39832883CC58D040C65701
:1019F000DF4F39832883CA58D0408AE08093A80BF0
:101A0000C090930CD12CC601880F991FEDB7FEB77B
:101A1000E81BF90B0FB6F894FEBF0FBEEDBF2DB754
:101A20003EB72F5F3F4F79014091930C50E0440F38
:101A3000551F6EE17CE0C9010E94B539360131E0E5
:101A4000631A710809F49FC22701212C312CAE01C1
:101A500046585F4FCE57DF4F59834883C258D04016
:101A6000CE018F5B9F4FCC57DF4F99838883C4583B
:101A7000D040F2012081822F881F8827881F21F003
:101A8000813009F475C175C2822F82958695877061
:101A9000813009F4B4C020F0823009F44CC169C22D
:101AA000E22FEF708E2F90E0FC013197EC30F105C2
:101AB00008F099C08827EE58FF4F8F4F0C945F397C
:101AC00089E0E5E1F4E0DE01A65ABF4F01900D92F6
:101AD0008A95E1F788C08AE0EEE1F4E0DE01A65ADB
:101AE000BF4F01900D928A95E1F77DC085E0E1E45A
:101AF000F3E0DE01A65ABF4F01900D928A95E1F7FF
:101B000072C089E0E8E2F4E0DE01A65ABF4F01901E
:101B10000D928A95E1F767C02AE431E46C963FAFF5
:101B20002EAF6C974DE450E06E965FAF4EAF6E9760
:101B30005AC081E08093A70B81E394E00E94DF34D8
:101B40000E940A3537DC8091D50B823010F00E945C
:101B50002603B5DE8091B80B882309F420C20E94C9
:101B6000AE041DC28CE0E5E4F4E0DE01A65ABF4FEE
:101B700001900D928A95E1F736C088E0E1E5F4E046
:101B8000DE01A65ABF4F01900D928A95E1F72BC056
:101B900089E0E9E5F4E0DE01A65ABF4F01900D921D
:101BA0008A95E1F720C08AE0E2E6F4E0DE01A65A79
:101BB000BF4F01900D928A95E1F715C087E0E7EDE0
:101BC000F4E0DE01A65ABF4F01900D928A95E1F72D
:101BD0000AC088E0ECE6F4E0DE01A65ABF4F0190AF
:101BE0000D928A95E1F784E794E00E94DF34CE01FC
:101BF000865A9F4F0E94DF340E940A35BAC1E22FF5
:101C0000EF708E2F90E0FC013197EF30F10508F076
:101C10007CC08827E258FF4F8F4F0C945F398AE0D1
:101C2000EFE7F4E0DE01A65ABF4F01900D928A95CE
:101C3000E1F775C08BE0E9E8F4E0DE01A65ABF4F9A
:101C400001900D928A95E1F76AC085E0E1E4F3E046
:101C5000DE01A65ABF4F01900D928A95E1F75FC051
:101C60008AE0EEE1F4E0DE01A65ABF4F01900D924A
:101C70008A95E1F754C089E0E5E1F4E0DE01A65A77
:101C8000BF4F01900D928A95E1F749C08AE491E433
:101C90006C969FAF8EAF6C97EDE4F0E06E96FFAF61
:101CA000EEAF6E973CC089E0E8E2F4E0DE01A65AB0
:101CB000BF4F01900D928A95E1F731C089E0E9E5C7
:101CC000F4E0DE01A65ABF4F01900D928A95E1F72C
:101CD00026C089E0EFEFF2E0DE01A65ABF4F019087
:101CE0000D928A95E1F722E0E7EAFBE0208317C036
:101CF0008AE0E4E9F4E0DE01A65ABF4F01900D92BC
:101D00008A95E1F70E94AE040AC088E0EEE9F4E0AB
:101D1000DE01A65ABF4F01900D928A95E1F786EA3F
:101D200094E00E94DF34CE01865A9F4F0E94DF3438
:101D30000E940A351EC1E22FEF711F92EF9345EB0F
:101D400054E05F934F93E1E0F0E0EC0FFD1FFF9351
:101D5000EF930E94F439CE0101960E94DF340E9475
:101D60000A350F900F900F900F900F900F9001C1B8
:101D7000822F807790E0FC01F595E795F595E79542
:101D8000F595E795F595E7958827E357FF4F8F4F32
:101D90000C945F3988E0E1E1F5E0DE01A658BF4F21
:101DA00001900D928A95E1F74CC087E0E5E6F4E0FA
:101DB000DE01A658BF4F01900D928A95E1F741C010
:101DC00087E0E4ECF4E0DE01A658BF4F01900D92ED
:101DD0008A95E1F736C089E0EBECF4E0DE01A65825
:101DE000BF4F01900D928A95E1F72BC08AE0E4ED98
:101DF000F4E0DE01A658BF4F01900D928A95E1F7FD
:101E000020C08AE0EEEDF4E0DE01A658BF4F01905D
:101E10000D928A95E1F715C08BE0E8EEF4E0DE0163
:101E2000A658BF4F01900D928A95E1F70AC087E04E
:101E3000E3EFF4E0DE01A658BF4F01900D928A95C2
:101E4000E1F76091DA0BA62EB12C8DB69EB6C501D6
:101E500007964DB75EB7481B590B0FB6F8945EBF97
:101E60000FBE4DBF8DB79EB701966C01E22FEF708C
:101E7000EE2EF12C70E080E090E00E9490369B0105
:101E8000AC0160E070E080E291E40E948137CA57C3
:101E9000DF4F688379838A839B83C658D040F701DC
:101EA000EE0FFF1FEB52F44F61A572A580E090E0AA
:101EB0000E949036CA57DF4F288139814A815B8161
:101EC000C658D0400E942836CA57DF4F68837983AE
:101ED0008A839B83C658D0406091D80B7091D90BF0
:101EE00080E090E00E9490369B01AC01CA57DF4F22
:101EF000688179818A819B81C658D0400E941E37B3
:101F00000C2D1D2D950140E050E00E947639CD57F3
:101F1000DF4F9881C358D0409F93CE57DF4FE88161
:101F2000C258D040EF93DF92CF92FFEFEF1AFF0A33
:101F3000FF92EF922AEF34E03F932F93CB57DF4F7E
:101F40005881C558D0405F93CC57DF4F8881C45823
:101F5000D0408F930E94F439CE018F5B9F4F0E9437
:101F6000DF340E940A35ABDC0FB6F8949EBE0FBE7C
:101F70008DBE9FEF291A390AE2E04E0E511C26143D
:101F8000370408F476CDC657DF4F28813981CA5807
:101F9000D0400FB6F8943EBF0FBE2DBF0BC0C65742
:101FA000DF4F48815981CA58D0400FB6F8945EBFC0
:101FB0000FBE4DBFC457DF4F88819981CC58D040A8
:101FC0000FB6F8949EBF0FBE8DBFC357DF4F0FB63D
:101FD000F894DEBF0FBECDBFDF91CF911F910F915F
:101FE000FF90EF90DF90CF90BF90AF909F908F9039
:101FF0007F906F905F904F903F902F9008952F9219
:102000003F924F925F927F928F929F92AF92BF9238
:10201000CF92DF92EF92FF920F931F93CF93DF93B4
:10202000CDB7DEB7A8970FB6F894DEBF0FBECDBF11
:10203000F82EE62ED42EC22E702E8DB69EB621E03E
:10204000621310C081E090E02FEF2F0D02C0880FC7
:10205000991F2A95E2F72091690C30916A0C822B26
:10206000932B11C081E090E02FEF2F0D02C0880F5D
:10207000991F2A95E2F7809590952091690C3091EF
:102080006A0C8223932390936A0C8093690C31E04D
:10209000D31210C081E090E02FEF2F0D02C0880F07
:1020A000991F2A95E2F720916B0C30916C0C822BD2
:1020B000932B11C081E090E02FEF2F0D02C0880F0D
:1020C000991F2A95E2F78095909520916B0C30919D
:1020D0006C0C8223932390936C0C80936B0C81E0A7
:1020E000C81210C081E090E02FEF2F0D02C0880FC2
:1020F000991F2A95E2F720916D0C30916E0C822B7E
:10210000932B11C081E090E02FEF2F0D02C0880FBC
:10211000991F2A95E2F78095909520916D0C30914A
:102120006E0C8223932390936E0C80936D0C91E040
:10213000791210C081E090E02FEF2F0D02C0880FC0
:10214000991F2A95E2F720916F0C3091700C822B29
:10215000932B11C081E090E02FEF2F0D02C0880F6C
:10216000991F2A95E2F78095909520916F0C3091F8
:10217000700C822393239093700C80936F0C0E94B9
:102180004F3405ED1BE0F8016581A62EB12CC50189
:1021900007962DB73EB7281B390B0FB6F8943EBFF4
:1021A0000FBE2DBF8DB79EB701962C012F2C312C61
:1021B00070E080E090E00E9490369B01AC0160E00E
:1021C00070E080E291E40E9481376DA37EA38FA32B
:1021D00098A7F101EE0FFF1FED52F44F61A572A514
:1021E00080E090E00E9490362DA13EA14FA158A51D
:1021F0000E9428366DA37EA38FA398A7F801638160
:10220000748180E090E00E9490369B01AC016DA14A
:102210007EA18FA198A50E941E37042D152D950132
:1022200040E050E00E94763981E090E0781280E052
:102230009F938F9381E090E0C81280E09F938F93EB
:1022400081E090E0D81280E09F938F9381E090E04E
:10225000E81280E09F938F935F924F921F92FF92BC
:1022600089E195E09F938F938E010F5F1F4F1F931E
:102270000F930E94F439C8010E94DF340E941D357B
:102280002DB73EB7205F3F4F0FB6F8943EBF0FBE4D
:102290002DBF0FB6F8949EBE0FBE8DBEA8960FB68A
:1022A000F894DEBF0FBECDBFDF91CF911F910F918C
:1022B000FF90EF90DF90CF90BF90AF909F908F9066
:1022C0007F905F904F903F902F900895CF93DF9332
:1022D00000D000D0CDB7DEB784E38983E9E6FCE027
:1022E000308121812A833B83828193819C838D83EA
:1022F000830F8C5C820F980F9E8366E0CE0101965F
:102300000E94E6358091AF0B811106C00E94B63560
:102310008091AF0B8823D1F387E395E00E94DF34EF
:102320008091AF0B8823E1F08091B40C811118C02B
:102330008AE08093A80B8091930C813089F480917E
:102340001E0C81110DC00E941D358091710C8823D7
:1023500081F08091B80B882361F00E94CE0309C000
:102360000E9425358091A80B882319F08150809315
:10237000A80B26960FB6F894DEBF0FBECDBFDF9137
:10238000CF910895CF93DF9300D000D0CDB7DEB7C3
:1023900084E389831A821B821C821D828E8366E0FD
:1023A000CE0101960E94E6358091AF0B811106C0E7
:1023B0000E94B6358091AF0B8823D1F382E495E07B
:1023C0000E94DF348091AF0B8823E1F08091B40C40
:1023D000811118C08AE08093A80B8091930C813002
:1023E00089F480911E0C81110DC00E941D358091D1
:1023F000710C882381F08091B80B882361F00E94D2
:102400004F0409C00E9425358091A80B882319F03C
:1024100081508093A80B26960FB6F894DEBF0FBEAE
:10242000CDBFDF91CF91089591E0813009F090E028
:102430009093710C0C944F3408952F923F924F92C9
:102440005F926F927F928F929F92AF92BF92CF9244
:10245000DF92FF920F931F93CF93DF93CDB7DEB739
:10246000CE55D1090FB6F894DEBF0FBECDBF6DB605
:102470007EB689E089838A8362E0CE0101960E945C
:10248000E6358091AF0B811106C00E94B635809170
:10249000AF0B8823D1F38091AF0B882309F47EC161
:1024A0008091B40C81117AC18091930C823008F430
:1024B00082C10E941B3685E08093D70C0F2EF8ED69
:1024C000CF2EFCE0DF2EF02D0EE11CE0F801808124
:1024D000F6018083F801828164968FAF64978481CE
:1024E00065968FAF6597CE018D5A9F4F0E94A5319B
:1024F000F60192838183F801F680F601F382F801F8
:102500006085F6016483F801A285B0E0BA2FAA279E
:102510008485A82B0F2EFDED2F2EFCE03F2EF02DF5
:10252000F10180E090E001E010E051E070E09801FE
:10253000082E02C0220F331F0A94E2F72A233B23FE
:10254000452F232B09F4472F4193019680319105A4
:1025500071F78091930C90E00197089794F0ECE26A
:10256000FCE0ADEEBCE027E030E080818D932F5F92
:102570003F4F8091930C329690E0019728173907CE
:10258000A4F3A62EB12C2DB73EB76F963FAF2EAF5A
:102590006F97C5010596EDB7FEB7E81BF90B0FB6AF
:1025A000F894FEBF0FBEEDBF2DB73EB72F5F3F4F74
:1025B000690170E080E090E00E9490369B01AC01E0
:1025C00060E070E080E291E40E94813769966CAF30
:1025D0007DAF8EAF9FAF69976F2D70E080E090E088
:1025E0000E94923669962CAD3DAD4EAD5FAD6997B8
:1025F0000E9428360C2D1D2D950140E050E00E94D0
:102600007639DF92CF92E8EDFCE082818F93818171
:102610008F9380811F928F938EE495E09F938F9389
:102620008E010D5F1F4F1F930F930E94F439C80155
:102630000E94DF348DB79EB70A960FB6F8949EBFFE
:102640000FBE8DBF412C512CF42CF10181911F0143
:10265000FFEF4F1A5F0A813009F091C08DB69EB628
:102660006091DC0CA62EB12CC5010A962DB73EB7A1
:10267000281B390B0FB6F8943EBF0FBE2DBF8DB788
:102680009EB7019667969FAF8EAF6797C5014C9630
:10269000EDB7FEB7E81BF90B0FB6F894FEBF0FBEFF
:1026A000EDBF2DB73EB72F5F3F4F690170E080E06F
:1026B00090E00E9490369B01AC0160E070E080E207
:1026C00091E40E9481376D966CAF7DAF8EAF9FAF66
:1026D0006D978091DB0CF1016785869FB001112415
:1026E000072E000C880B990B0E9492366D962CAD2C
:1026F0003DAD4EAD5FAD6D970E94283666960FAD2D
:10270000669767961FAD6797950140E050E00E947D
:1027100076398091B30B9091B40B0F2C02C0969533
:1027200087950A94E2F7817099279F938F93E1EB45
:10273000FBE08081918102C096958795FA94E2F73B
:10274000817099279F938F936796FFAD6797FF934B
:1027500066962FAD66972F935F924F9280E695E035
:102760009F938F93DF92CF920E94F4398C2D9D2DF1
:102770000E94DF340FB6F8949EBE0FBE8DBEF0E10E
:102780004F16510409F060CF6F962EAD3FAD6F9795
:102790000FB6F8943EBF0FBE2DBF0DC089E795E080
:1027A0000E94DF340E940A358091D70C882319F0EB
:1027B00081508093D70C0FB6F8947EBE0FBE6DBECD
:1027C000C25ADF4F0FB6F894DEBF0FBECDBFDF9108
:1027D000CF911F910F91FF90DF90CF90BF90AF905E
:1027E0009F908F907F906F905F904F903F902F9031
:1027F00008952F923F924F925F926F927F928F92A5
:102800009F92AF92BF92CF92DF92EF92FF920F937F
:102810001F93CF93DF93CDB7DEB7AE970FB6F89483
:10282000DEBF0FBECDBF2DB73EB73EA72DA78AE0B6
:1028300089838A8362E0CE0101960E94E635809109
:10284000AF0B811106C00E94B6358091AF0B882373
:10285000D1F38091AF0B882309F4EAC08091B40CC6
:102860008111E6C08091930C823008F4EEC00E9482
:102870001B3685E08093D70CEEE1FCE0808190E090
:10288000982F882722817C01E22A8091930C90E086
:10289000019703970CF4D9C00F2EF2E2CF2EFCE083
:1028A000DF2EF02D0F2EFDEE6F2EFCE07F2EF02D93
:1028B000212C312C44244394512CCE0103969CA30B
:1028C0008BA3D8A6CFA2F6018081811112C0C201CC
:1028D0009201022C02C0220F331F0A94E2F721302A
:1028E000310511F080E090E08E219F21892B09F4C1
:1028F0008AC08DB69EB66091DC0CA62EB12CC501A7
:1029000005962DB73EB7281B390B0FB6F8943EBF7E
:102910000FBE2DBF8DB79EB701969EA38DA370E00D
:1029200080E090E00E9490369B01AC0160E070E096
:1029300080E291E40E94813769A77AA78BA79CA7C0
:102940008091DB0CF3016081869FB0011124072E7A
:10295000000C880B990B0E94923629A53AA54BA52D
:102960005CA50E9428360DA11EA1950140E050E013
:102970000E9476395201022C02C0AA0CBB1C0A9498
:10298000E2F7C5018E219F219F938F93EFA1F8A5B8
:1029900080811F928F93FEA1FF932DA12F93C101E0
:1029A00001969F938F9383E895E09F938F93FCA16B
:1029B000FF932BA12F930E94F4398DB79EB70C96ED
:1029C0000FB6F8949EBF0FBE8DBFEFA1F8A5808112
:1029D00081110EC0C201AA94AB2811F080E090E0F2
:1029E0008E219F21892B21F08BE492E00E94DF341D
:1029F000CE0103960E94DF340E940A350FB6F89488
:102A00009EBE0FBE8DBE91012D5F3F4F8091930CF6
:102A10009FEF291A390AE2E0CE0ED11CFFEF6F1AA0
:102A20007F0A90E00197281739070CF44ACF0DC0B0
:102A300087E995E00E94DF340E940A358091D70C27
:102A4000882319F081508093D70C2DA53EA50FB691
:102A5000F8943EBF0FBE2DBFAE960FB6F894DEBF02
:102A60000FBECDBFDF91CF911F910F91FF90EF90DF
:102A7000DF90CF90BF90AF909F908F907F906F909E
:102A80005F904F903F902F9008952F923F924F92DA
:102A90005F926F927F928F929F92BF92CF92DF92BE
:102AA000EF92FF920F931F93CF93DF9300D01F926B
:102AB000CDB7DEB7D82EC62EB42E6DB67EB68091B9
:102AC000DC0C90E04B962DB73EB7281B390B0FB6A8
:102AD000F8943EBF0FBE2DBF8DB79EB701967C0107
:102AE00091E0691310C081E090E02FEF2D0D02C03E
:102AF000880F991F2A95E2F72091B10B3091B20B04
:102B0000822B932B11C081E090E02FEF2D0D02C09E
:102B1000880F991F2A95E2F7809590952091B10B27
:102B20003091B20B822393239093B20B8093B10B1D
:102B3000E1E0BE1210C081E090E02FEF2D0D02C049
:102B4000880F991F2A95E2F72091B30B3091B40BAF
:102B5000822B932B11C081E090E02FEF2D0D02C04E
:102B6000880F991F2A95E2F7809590952091B30BD5
:102B70003091B40B822393239093B40B8093B30BC7
:102B80000E94093408ED1CE0F8016481862E912C26
:102B9000C40105962DB73EB7281B390B0FB6F89424
:102BA0003EBF0FBE2DBF8DB79EB701962C012D2CB9
:102BB000312C70E080E090E00E9490369B01AC01E7
:102BC00060E070E080E291E40E94813769837A835B
:102BD0008B839C83F101E852F34F8489F801638170
:102BE000869FB0011124072E000C880B990B0E94C0
:102BF000923629813A814B815C810E942836042DCE
:102C0000152D940140E050E00E94763981E090E07B
:102C1000B81280E09F938F9381E090E0C81280E02B
:102C20009F938F935F924F921F92DF9281EA95E07C
:102C30009F938F93FF92EF920E94F4398E2D9F2DD8
:102C40000E94DF340E941D352DB73EB7245F3F4FF1
:102C50000FB6F8943EBF0FBE2DBF0FB6F8947EBEE0
:102C60000FBE6DBE0F900F900F900F90DF91CF9120
:102C70001F910F91FF90EF90DF90CF90BF909F90AA
:102C80008F907F906F905F904F903F902F9008951E
:102C9000CF93DF9300D000D0CDB7DEB78CE089832F
:102CA000E1EBFBE0308121812A833B8382819381A8
:102CB0009C838D83830F845F820F980F9E8366E0D1
:102CC000CE0101960E94E6358091AF0B811106C0BE
:102CD0000E94B6358091AF0B8823D1F389EB95E044
:102CE0000E94DF348091AF0B882391F08091B40C67
:102CF00081110EC08091930C813051F480911E0C93
:102D0000811106C00E941D3585E08093D70C09C053
:102D10000E9425358091D70C882319F0815080932B
:102D2000D70C26960FB6F894DEBF0FBECDBFDF914D
:102D3000CF910895CF93DF9300D000D0CDB7DEB709
:102D40008CE089831A821B821C821D828E8366E03E
:102D5000CE0101960E94E6358091AF0B811106C02D
:102D60000E94B6358091AF0B8823D1F384EC95E0B7
:102D70000E94DF348091AF0B882391F08091B40CD6
:102D800081110EC08091930C813051F480911E0C02
:102D9000811106C00E941D3585E08093D70C09C0C3
:102DA0000E9425358091D70C882319F0815080939B
:102DB000D70C26960FB6F894DEBF0FBECDBFDF91BD
:102DC000CF910895CF93DF9300D0CDB7DEB79DE0CC
:102DD00099838A83835F8B8363E0CE0101960E948F
:102DE000E6358091AF0B811106C00E94B635809107
:102DF000AF0B8823D1F38091AF0B882311F1809121
:102E0000B40C81111EC085E08093D70C80ED95E055
:102E10000E94DF3480911E0C882319F08F3F39F017
:102E200009C082E08093D60C0E941D3517C00E9415
:102E3000213514C08FED96E00E94DF340E940A35E0
:102E40000DC08DED95E00E94DF340E940A3580911F
:102E5000D70C882319F081508093D70C0F900F90D6
:102E60000F90DF91CF910895CF93DF9300D01F9201
:102E7000CDB7DEB79FE0998392E09A838B838F5E14
:102E80008C8364E0CE0101960E94E6358091AF0B01
:102E9000811106C00E94B6358091AF0B8823D1F313
:102EA0008EEE95E00E94DF348091AF0B8823A9F06D
:102EB0008091B40C811111C085E08093D70C809172
:102EC000930C813051F480911E0C811106C083E077
:102ED0008093D60C0E941D3509C00E942535809133
:102EE000D70C882319F081508093D70C0F900F9046
:102EF0000F900F90DF91CF9108952F923F924F92B4
:102F00005F926F927F928F929F92AF92BF92CF9279
:102F1000DF92EF92FF920F931F93CF93DF93CDB782
:102F2000DEB72B970FB6F894DEBF0FBECDBF2DB71F
:102F30003EB73B872A878FE0898383E08A8382E1DB
:102F40008B8363E0CE0101960E94E6358091AF0B42
:102F5000811106C00E94B6358091AF0B8823D1F352
:102F60008091AF0B882309F4C5C08091B40C811106
:102F7000C1C080911F0C8111B6C00E941B3685E034
:102F80008093D70C8091930C90E001971816190646
:102F90000CF0A7C00F2EFEE1EF2EFCE0FF2EF02D6F
:102FA0000F2EFDEE8F2EFCE09F2EF02DC12CD12C8C
:102FB0000F2EF8ED6F2EFCE07F2EF02DF7018081B3
:102FC000882309F47DC04DB65EB6F301848190E09C
:102FD0000A962DB73EB7281B390B0FB6F8943EBFA3
:102FE0000FBE2DBF8DB79EB701969D838C838CEF4E
:102FF00095E00E94DF34F3016481262E312CC1015B
:1030000005962DB73EB7281B390B0FB6F8943EBF77
:103010000FBE2DBF8DB79EB701965C0170E080E0BA
:1030200090E00E9490369B01AC0160E070E080E28D
:1030300091E40E9481376E837F8388879987F301AB
:103040008381F4016081869FB0011124072E000C5A
:10305000880B990B0E9492362E813F8148855985B5
:103060000E9428360A2D1B2D910140E050E00E945D
:103070007639BF92AF9227ED39E03F932F939D8130
:103080009F93EC81EF930E94F4398C819D810E9483
:10309000DF34F70180811F928F932BE338E03F9359
:1030A0002F93BF92AF920E94F4398A2D9B2D0E94DC
:1030B000DF340E940A350FB6F8945EBE0FBE4DBED7
:1030C0009FEFC91AD90A8091930CE2E0EE0EF11C31
:1030D000FFEF8F1A9F0A90E00197C816D9060CF4EB
:1030E0006DCF87DB14C089E096E00E94DF340E9438
:1030F0000A350DC08BE196E00E94DF340E940A354C
:103100008091D70C882319F081508093D70C2A85A1
:103110003B850FB6F8943EBF0FBE2DBF2B960FB662
:10312000F894DEBF0FBECDBFDF91CF911F910F91FD
:10313000FF90EF90DF90CF90BF90AF909F908F90D7
:103140007F906F905F904F903F902F9008954F9297
:103150005F926F927F928F929F92AF92BF92CF9227
:10316000DF92EF92FF920F931F93CF93DF9300D0E4
:10317000CDB7DEB7EDB6FEB68FE0898384E08A83F3
:1031800083E18B8363E0CE0101960E94E635809156
:10319000AF0B811106C00E94B6358091AF0B88231A
:1031A000D1F38091AF0B882309F464C08091B40CF3
:1031B000811160C080911F0C811151C08DB69EB6E7
:1031C0000E941B3685E08093D70C08ED1CE0F801C7
:1031D0006481A62EB12CC50105962DB73EB7281BDC
:1031E000390B0FB6F8943EBF0FBE2DBF8DB79EB7FB
:1031F00001966C0170E080E090E00E9490369B01A7
:10320000AC0160E070E080E291E40E9481372B0124
:103210003C01F801838160911E0C869FB00111244E
:10322000072E000C880B990B0E949236A301920185
:103230000E9428368601950140E050E00E947639D0
:103240008DE296E00E94DF34C6010E94DF340E94C6
:103250000A350FB6F8949EBE0FBE8DBE18C086E329
:1032600096E00E94DF340E940A3581E08093D60CFC
:1032700044DE0DC083E496E00E94DF340E940A35EC
:103280008091D70C882319F081508093D70C0FB60A
:10329000F894FEBE0FBEEDBE0F900F900F90DF9121
:1032A000CF911F910F91FF90EF90DF90CF90BF9043
:1032B000AF909F908F907F906F905F904F90089508
:1032C000CF93DF93CDB7DEB727970FB6F894DEBF65
:1032D0000FBECDBF84E596E00E94DF348FE0898386
:1032E00081E08A831B821C821D828091B50B8E83B4
:1032F000805F8F8367E0CE0101960E94E635809162
:10330000AF0B811106C00E94B6358091AF0B8823A8
:10331000D1F38091AF0B882391F08091B40C81118F
:103320000EC085E08093D70C8091930C813039F4E6
:1033300080911E0C811103C00E941D3509C00E949E
:1033400025358091D70C882319F081508093D70CB4
:1033500027960FB6F894DEBF0FBECDBFDF91CF9199
:103360000895813021F48091B50B816003C0809174
:10337000B50B8E7F613011F4826001C08D7F4130CA
:1033800011F4846001C08B7F8093B50B0E940934D7
:1033900083E696E00E94DF340E941D3591CF0895A8
:1033A0008F929F92AF92BF92CF92DF92EF92FF9255
:1033B0000F931F93CF93DF93CDB7DEB7C554D109D9
:1033C0000FB6F894DEBF0FBECDBF8FE089831A829F
:1033D0008B8363E0CE0101960E94E6358091AF0BAE
:1033E000811106C00E94B6358091AF0B8823D1F3BE
:1033F0008091AF0B882309F4F4C08091B40C811143
:10340000F0C08091930C823008F4F2C00E941B3609
:1034100085E08093D70CAEEBBCE0EAECFCE01D92BB
:10342000EA17FB07E1F786ED9CE011928E179F07E4
:10343000E1F70F2EFEE1EF2EFCE0FF2EF02DD7017D
:1034400012969C91129714968C91149705EB1CE0A0
:103450002C91F8012683978380878FE696E00E945F
:10346000DF348BEB9CE00E94DF34F701A085D2842F
:10347000C48476856089528944893689208D928DED
:10348000848DB681F801B187A287D386C4867587FB
:1034900066875787408B318B228B938B848B86EA90
:1034A00093E00E94DF348EEB9CE00E94DF34F70152
:1034B000A0A1D2A0C4A076A160A552A544A536A51E
:1034C00020A992A984A9B68DF801B58BA68BD78ABD
:1034D000C08E718F628F538F448F358F268F978F59
:1034E00080A386EA93E00E94DF348AEC9CE00E948D
:1034F000DF34D701D6968C91D69725968FAF259736
:10350000D8968C9126968FAF2697CE018C5B9F4FD5
:103510000E94A531F80180839183D701DA964C91FE
:10352000DA9750E060E070E0762F652F542F442743
:10353000DC962C91DC97422B762F652F542F442755
:10354000DE962C91422B762F652F542F4427209105
:103550005E0C422B242F217022836A017B01F6949A
:10356000E794D794C7943C2D317033834A015B01B3
:10357000B694A79497948794B694A79497948794B5
:10358000E82DE170D8011496EC931497689412F822
:1035900076956795579547951694D1F7417015968E
:1035A0004C931F924F931F92EF931F923F931F9242
:1035B0002F939F938F9386E796E09F938F938E012F
:1035C0000C5F1F4F1F930F930E94F439C8010E9494
:1035D000DF340E940A350FB6F894DEBF0FBECDBFB0
:1035E00007C08091D70C882319F081508093D70CA5
:1035F000CB5BDF4F0FB6F894DEBF0FBECDBFDF91C0
:10360000CF911F910F91FF90EF90DF90CF90BF90DF
:10361000AF909F908F9008952F923F924F925F921C
:103620006F927F928F929F92AF92BF92CF92DF92D2
:10363000EF92FF920F931F93CF93DF93CDB7DEB737
:103640002B970FB6F894DEBF0FBECDBF2DB73EB798
:103650003B872A878FE0898387E08A8386E18B8393
:1036600063E0CE0101960E94E6358091AF0B811197
:1036700006C00E94B6358091AF0B8823D1F38091AC
:10368000AF0B882309F4C5C08091B40C8111C1C06F
:103690008091930C823008F4B5C00E941B3685E0FF
:1036A0008093D70C8091930C90E00197181619061F
:1036B0000CF0BCC00F2EFEE1EF2EFCE0FF2EF02D33
:1036C0000F2EFDEE8F2EFCE09F2EF02DC12CD12C65
:1036D0000F2EF8ED6F2EFCE07F2EF02DF70180818C
:1036E000882309F47DC04DB65EB6F301848190E075
:1036F0000A962DB73EB7281B390B0FB6F8943EBF7C
:103700000FBE2DBF8DB79EB701969D838C8386E833
:1037100096E00E94DF34F3016481262E312CC10132
:1037200005962DB73EB7281B390B0FB6F8943EBF50
:103730000FBE2DBF8DB79EB701965C0170E080E093
:1037400090E00E9490369B01AC0160E070E080E266
:1037500091E40E9481376E837F8388879987F30184
:103760008381F4016081869FB0011124072E000C33
:10377000880B990B0E9492362E813F81488559858E
:103780000E9428360A2D1B2D910140E050E00E9436
:103790007639BF92AF9227ED39E03F932F939D8109
:1037A0009F93EC81EF930E94F4398C819D810E945C
:1037B000DF34F70180811F928F932BE338E03F9332
:1037C0002F93BF92AF920E94F4398A2D9B2D0E94B5
:1037D000DF340E940A350FB6F8945EBE0FBE4DBEB0
:1037E0009FEFC91AD90A8091930CE2E0EE0EF11C0A
:1037F000FFEF8F1A9F0A90E00197C816D9060CF4C4
:103800006DCF14C086E996E00E94DF340E940A352D
:103810000DC08EEA96E00E94DF340E940A35809146
:10382000D70C882319F081508093D70C2A853B85CB
:103830000FB6F8943EBF0FBE2DBF2B960FB6F8946F
:10384000DEBF0FBECDBFDF91CF911F910F91FF90D3
:10385000EF90DF90CF90BF90AF909F908F907F9030
:103860006F905F904F903F902F9008952F923F92CE
:103870004F925F926F927F928F929F92AF92BF9280
:10388000CF92DF92EF92FF920F931F93CF93DF932C
:10389000CDB7DEB72B970FB6F894DEBF0FBECDBF06
:1038A0002DB73EB73B872A878FE0898386E08A83DE
:1038B00085E18B8363E0CE0101960E94E63580911D
:1038C000AF0B811106C00E94B6358091AF0B8823E3
:1038D000D1F38091AF0B882309F4C5C08091B40C5B
:1038E0008111C1C08091930C823008F4B5C00E9450
:1038F0001B3685E08093D70C8091930C90E0019764
:10390000181619060CF0BCC00F2EFEE1EF2EFCE0DD
:10391000FF2EF02D0F2EFDEE8F2EFCE09F2EF02DB2
:10392000C12CD12C0F2EF8ED6F2EFCE07F2EF02D48
:10393000F7018081882309F47DC04DB65EB6F3019E
:10394000848190E00A962DB73EB7281B390B0FB63D
:10395000F8943EBF0FBE2DBF8DB79EB701969D83D5
:103960008C8383EC96E00E94DF34F3016481262E81
:10397000312CC10105962DB73EB7281B390B0FB668
:10398000F8943EBF0FBE2DBF8DB79EB701965C0168
:1039900070E080E090E00E9490369B01AC0160E016
:1039A00070E080E291E40E9481376E837F83888794
:1039B0009987F3018381F4016081869FB00111240E
:1039C000072E000C880B990B0E9492362E813F81A6
:1039D000488559850E9428360A2D1B2D910140E00B
:1039E00050E00E947639BF92AF9227ED39E03F93C5
:1039F0002F939D819F93EC81EF930E94F4398C81EA
:103A00009D810E94DF34F70180811F928F932BE309
:103A100038E03F932F93BF92AF920E94F4398A2DE2
:103A20009B2D0E94DF340E940A350FB6F8945EBECB
:103A30000FBE4DBE9FEFC91AD90A8091930CE2E0E8
:103A4000EE0EF11CFFEF8F1A9F0A90E00197C81647
:103A5000D9060CF46DCF14C081ED96E00E94DF34DE
:103A60000E940A350DC087EE96E00E94DF340E9466
:103A70000A358091D70C882319F081508093D70C98
:103A8000CBDD2A853B850FB6F8943EBF0FBE2DBF18
:103A90002B960FB6F894DEBF0FBECDBFDF91CF914E
:103AA0001F910F91FF90EF90DF90CF90BF90AF905C
:103AB0009F908F907F906F905F904F903F902F904E
:103AC00008952F923F924F925F926F927F928F92C2
:103AD0009F92AF92BF92CF92DF92EF92FF920F939D
:103AE0001F93CF93DF93CDB7DEB767970FB6F894E8
:103AF000DEBF0FBECDBF8DB69EB68FE0898385E059
:103B00008A8384E18B8363E0CE0101960E94E635CF
:103B10008091AF0B811106C00E94B6358091AF0B2A
:103B20008823D1F38091AF0B882309F43AC28091A6
:103B3000B40C811136C28091930C833008F42AC2F0
:103B40008091930C815080FD25C22DB73EB73F8BED
:103B50002E8B0E941B3685E08093D70C6090930CCF
:103B6000712CC301880F991FEDB7FEB7E81BF90B45
:103B70000FB6F894FEBF0FBEEDBF0DB71EB70F5FB7
:103B80001F4F4091930C50E0440F551F6EE17CE0B5
:103B9000C8010E94B539F1E06F1A710809F4F2C149
:103BA0006801A12CB12C0F2EF2EA4F2EF4E05F2E0B
:103BB000F02D7E0124E0E20EF11CF60130803C8AFB
:103BC00022802D8ACE0144960E94A5318C011F923D
:103BD0002F921F923F925F924F922AEF36E03F93CF
:103BE0002F93FF92EF920E94F439EDB7FEB73A9609
:103BF0000FB6F894FEBF0FBEEDBF0E3FF1E01F07FA
:103C000009F448C08091840B882319F01092840B2A
:103C10002DDE003921E01207A1F164F4083C110502
:103C200001F10C3281E0180729F10436110509F081
:103C300052C00EC0083092E01907E1F10835E2E009
:103C40001E0709F440C00E3F114009F044C022C0D5
:103C500088E0E6E0F7E0D70101900D928A95E1F760
:103C60003AC08AE0EEE0F7E0D70101900D928A9524
:103C7000E1F731C02FE43BE4F70131832083128266
:103C80002AC08EE0E8E1F7E0D70101900D928A9515
:103C9000E1F721C08EE0E6E2F7E0D70101900D9256
:103CA0008A95E1F78091840B8130A9F031E030935F
:103CB000840B11C08DE0E4E3F7E0D70101900D9291
:103CC0008A95E1F708C08AE0E1E4F7E0D7010190C6
:103CD0000D928A95E1F782E1381609F4ACC083159C
:103CE00038F090E1391681F0E1E13E16E9F137C193
:103CF000F4E13F1609F4F6C03F1608F4DBC025E1F5
:103D0000321609F4FAC02BC131E0231691F02316C4
:103D100038F082E02816B1F093E02916E1F01FC1D7
:103D200086E0EBE2F4E0D70101900D928A95E1F78D
:103D300016C187E0EBE4F7E0D70101900D928A9578
:103D4000E1F70DC187E0E2E5F7E0D70101900D92C0
:103D50008A95E1F704C18BE0E9E5F7E0D70101902E
:103D60000D928A95E1F7FBC0822D90E08535910593
:103D700008F0F5C0FC018827EB56FF4F8F4F0C94DD
:103D80005F3988E0E4E6F7E0D70101900D928A956B
:103D9000E1F7E5C089E0ECE6F7E0D70101900D928C
:103DA0008A95E1F7DCC088E0E5E7F7E0D70101900C
:103DB0000D928A95E1F7D3C088E0EDE7F7E0D701EF
:103DC00001900D928A95E1F7CAC08AE0E5E8F7E034
:103DD000D70101900D928A95E1F7C1C08AE0EFE822
:103DE000F7E0D70101900D928A95E1F7B8C08AE01B
:103DF000E9E9F7E0D70101900D928A95E1F7AFC0AC
:103E00008AE0E3EAF7E0D70101900D928A95E1F7A5
:103E1000A6C088E0EDEAF7E0D70101900D928A95FF
:103E2000E1F79DC088E0E5EBF7E0D70101900D9246
:103E30008A95E1F794C0E1E32E1609F1E21530F01E
:103E4000222059F0F0E32F1689F089C020E42216D1
:103E5000F9F030E5231629F182C087E0EDEBF7E0B9
:103E6000D70101900D928A95E1F779C086E0E4ECE4
:103E7000F7E0D70101900D928A95E1F770C087E0D5
:103E8000EAECF7E0D70101900D928A95E1F767C05F
:103E900086E0E1EDF7E0D70101900D928A95E1F718
:103EA0005EC088E0E7EDF7E0D70101900D928A95BA
:103EB000E1F755C0222021F080E1281651F04FC0D3
:103EC00087E0EFEDF7E0D70101900D928A95E1F7D9
:103ED00046C088E0E6EEF7E0D70101900D928A95A2
:103EE000E1F73DC021103BC088E0EEEEF7E0D701DE
:103EF00001900D928A95E1F732C092E02916A9F05F
:103F0000921518F0222041F02AC0E3E02E16B1F0FD
:103F1000F4E02F16E1F023C087E0E6EFF7E0D701E9
:103F200001900D928A95E1F71AC087E0EDEFF7E076
:103F3000D70101900D928A95E1F711C088E0E4E085
:103F4000F8E0D70101900D928A95E1F708C087E06B
:103F5000ECE0F8E0D70101900D928A95E1F783E15A
:103F600098E00E94DF34C7010E94DF340E940A35C6
:103F700022E0A20EB11C34E0C30ED11CA614B7047B
:103F800008F41BCE8E899F890FB6F8949EBF0FBE92
:103F90008DBF14C08CE198E00E94DF340E940A3586
:103FA0000DC089E298E00E94DF340E940A358091BA
:103FB000D70C882319F081508093D70C0FB6F89452
:103FC0009EBE0FBE8DBE67960FB6F894DEBF0FBEC5
:103FD000CDBFDF91CF911F910F91FF90EF90DF90B8
:103FE000CF90BF90AF909F908F907F906F905F9099
:103FF0004F903F902F9008952F923F924F925F9253
:104000006F927F928F929F92AF92BF92CF92DF92E8
:10401000EF92FF920F931F93CF93DF93CDB7DEB74D
:10402000C256D1090FB6F894DEBF0FBECDBF2DB773
:104030003EB7A3963FAF2EAFA397A1963FAF2EAF4B
:10404000A19785E08093D70CE090930CF12CC701E9
:10405000880F991FEDB7FEB7E81BF90B0FB6F89460
:10406000FEBF0FBEEDBF8DB79EB701965C014091BC
:10407000930C50E0440F551F6EE17CE00E94B5396F
:104080004701F1E08F1A910809F463C2412C512CC9
:104090009E012F5F3F4F19013E0131E4630E711CF9
:1040A0008201000F111F0A0D1B1DF801F0808F2DDA
:1040B0008295869587708130B9F41F928F2D8F710C
:1040C0008F9324E338E03F932F933F922F920E94E7
:1040D000F439C1010E94DF340E940A350F900F901D
:1040E0000F900F900F900F908F2D82958F7009F089
:1040F000CDC0EF2DEF708E2F90E0FC013197ED30A9
:10410000F10508F0AEC08827E651FF4F8F4F0C94A1
:104110005F398AE0EFE7F4E0D30101900D928A95D0
:10412000E1F79FC08BE0E9E8F4E0D30101900D9244
:104130008A95E1F796C089E0EFE3F8E0D3010190BA
:104140000D928A95E1F78DC08EE0E8E4F8E0D301A6
:1041500001900D928A95E1F784C08BE0E6E5F8E0E6
:10416000D30101900D928A95E1F77BC08AE0E1E6E8
:10417000F8E0D30101900D928A95E1F772C088E0D2
:10418000EBE6F8E0D30101900D928A95E1F769C062
:1041900089E0E8E2F4E0D30101900D928A95E1F71D
:1041A00060C08AE0E3E7F8E0D30101900D928A95C0
:1041B000E1F757C085E0E1E4F3E0D30101900D920F
:1041C0008A95E1F74EC0CE018F5B9F4F2AE0EBE36B
:1041D000F4E0DC0101900D922A95E1F7E6EDFCE0B8
:1041E00021E0208325E021839F938F938DE798E042
:1041F0009F938F938E010F5F1F4F1F930F930E940A
:10420000F439C8010E94DF340E941D120F900F90F4
:104210000F900F900F900F908091D80C823018F073
:10422000BFD84ED84EDC22DB0E94F913A196EEAD2A
:10423000FFADA1970FB6F894FEBF0FBEEDBF92C1C0
:1042400088E0ECE8F8E0D30101900D928A95E1F75F
:1042500008C088E0ECE6F4E0D30101900D928A9565
:10426000E1F77F926F9224E938E03F932F933F92DA
:104270002F920E94F439C1010E94DF340E940A3556
:104280000F900F900F900F900F900F90FF200CF059
:1042900092C0EDB7FEB76B96FFAFEEAF6B97FFEF37
:1042A0004F1A5F0AF801E2806091DC0C262F30E0A3
:1042B00069963FAF2EAF6997C9010596EDB7FEB776
:1042C000E81BF90B0FB6F894FEBF0FBEEDBF2DB77C
:1042D0003EB72F5F3F4F67963FAF2EAF67978F2D4B
:1042E0008F70C82ED12C70E080E090E00E94903654
:1042F0009B01AC0160E070E080E291E40E948137B4
:104300006F966CAF7DAF8EAF9FAF6F978091DB0CD8
:10431000F601E852F34F6589869FB0011124072EFC
:10432000000C880B990B0E9492366F962CAD3DAD18
:104330004EAD5FAD6F970E94283666960FAD6697BB
:1043400067961FAD679769962EAD3FAD699740E0C0
:1043500050E00E9476391F92EF928F2D807790E087
:10436000929582958F7089279F7089279F938F934D
:1043700067963FAD67973F9366968FAD66978F932D
:10438000C60101969F938F93E1EAF8E0FF93EF93C4
:104390003F922F920E94F439C1010E94DF340E94A3
:1043A0000A356B968EAD9FAD6B970FB6F8949EBF96
:1043B0000FBE8DBFC7C08F2D829586958695837061
:1043C000813009F0BFC0EDB7FEB76B96FFAFEEAF1F
:1043D0006B97FFEF4F1A5F0AF801E2806091DC0CE7
:1043E000262F30E069963FAF2EAF6997C901059639
:1043F000EDB7FEB7E81BF90B0FB6F894FEBF0FBE82
:10440000EDBF2DB73EB72F5F3F4F67963FAF2EAF43
:1044100067978F2D8F70C82ED12C70E080E090E0D0
:104420000E9490369B01AC0160E070E080E291E474
:104430000E9481376F966CAF7DAF8EAF9FAF6F9745
:104440008091DB0CF601E852F34F6589869FB0013D
:104450001124072E000C880B990B0E9492366F9640
:104460002CAD3DAD4EAD5FAD6F970E942836669680
:104470000FAD669767961FAD679769962EAD3FADF6
:10448000699740E050E00E9476398F2D807390E06C
:10449000929582958F7089279F7089278130910529
:1044A00099F01CF4892B39F027C082309105A9F0CE
:1044B0000397D1F021C088E0EBEBF8E0D301019045
:1044C0000D928A95E1F718C085E0E3ECF8E0D3019E
:1044D00001900D928A95E1F70FC02EE431E4F301CB
:1044E00031832083128208C087E0E7EDF4E0D30136
:1044F00001900D928A95E1F71F92EF927F926F9251
:1045000067963FAD67973F9366968FAD66978F939B
:10451000C60101969F938F93E8ECF8E0FF93EF9329
:104520003F922F920E94F439C1010E94DF340E9411
:104530000A356B968EAD9FAD6B970FB6F8949EBF04
:104540000FBE8DBF9FEF491A590A4814590408F449
:10455000A7CDA196EEADFFADA1970FB6F894FEBF23
:104560000FBEEDBFA3962EAD3FADA3970FB6F89447
:104570003EBF0FBE2DBFCE59DF4F0FB6F894DEBF42
:104580000FBECDBFDF91CF911F910F91FF90EF90A4
:10459000DF90CF90BF90AF909F908F907F906F9063
:1045A0005F904F903F902F9008952F923F924F929F
:1045B0005F926F927F928F929F92AF92BF92CF92B3
:1045C000DF92EF92FF920F931F93CF93DF93CDB7BC
:1045D000DEB7C057D1090FB6F894DEBF0FBECDBF0E
:1045E000E82E2DB73EB7AF963FAF2EAFAF978111F4
:1045F00004C081E7898B8A8B03C089E5898B8A8B0C
:1046000062E0CE0141960E94E6358091AF0B8111A8
:1046100006C00E94B6358091AF0B8823D1F38091FC
:10462000AF0B882309F4B3C18091B40C8111AFC1E1
:104630008091930C823008F4C8C10E941B36F12C83
:10464000C7010E94753186E38E9D80018F9D100DFC
:104650001124C8018350934F4C010F2EFEE1AF2E61
:10466000FCE0BF2EF02DF5018081F4018083F5017F
:104670008281A4968FAFA4978481A5968FAFA597CA
:10468000CE018D599F4F0E94A531F4019283818301
:10469000F501D680F401D382F5016085F4016483CD
:1046A000F5018285F4018583F501448550E0542F9E
:1046B00044278685482B98012D5F324F3901F90137
:1046C00080E090E0A1E0B0E0CC24C394B12C9D0147
:1046D000082E02C0220F331F0A94E2F72423352349
:1046E0007C2D232B09F47B2D71930196803191054C
:1046F00071F7EEE1FCE0408950E0542F44278289B5
:10470000482BF801ED5EF24F80E090E0A1E0B0E0D0
:10471000CC24C394B12C9D01082E02C0220F331F5C
:104720000A94E2F7242335237C2D232B09F47B2DD7
:10473000719301968031910571F78091930C90E00F
:1047400001970B979CF0E2E3FCE0D801AA5DB24F21
:104750002AE030E080818D932F5F3F4F8091930C52
:10476000329690E0019728173907A4F3862E912CF2
:104770008DB79EB7E1969FAF8EAFE197C4010596C6
:10478000EDB7FEB7E81BF90B0FB6F894FEBF0FBEEE
:10479000EDBF2DB73EB72F5F3F4F590170E080E06E
:1047A00090E00E9490369B01AC0160E070E080E2F6
:1047B00091E40E9481371B012C016D2D70E080E097
:1047C00090E00E949236A20191010E9428360A2DA3
:1047D0001B2D940140E050E00E94763927013FEF05
:1047E000431A530ABF92AF9286E38E9DF0018F9DCC
:1047F000F00D1124E350F34F82818F9381818F93C9
:1048000080811F928F935F924F928FED98E09F93DC
:104810008F938E010D5E1F4F1F930F930E94F439EB
:10482000C8010E94DF340E940A358DB79EB70C96EE
:104830000FB6F8949EBF0FBE8DBF212C312C26E3FE
:104840002E9DC0012F9D900D11248350934FFC018C
:104850003496AB96FFAFEEAFAB979C012D5F3F4F09
:10486000AD963FAF2EAFAD97ADB6BEB6AB96EEAD43
:10487000FFADAB976081C62ED12CC6010A962DB72D
:104880003EB7281B390B0FB6F8943EBF0FBE2DBFA5
:104890008DB79EB701964C01C6014C96EDB7FEB799
:1048A000E81BF90B0FB6F894FEBF0FBEEDBF2DB796
:1048B0003EB72F5F3F4F790170E080E090E00E94AB
:1048C00090369B01AC0160E070E080E291E40E94D0
:1048D0008137A9966CAF7DAF8EAF9FAFA997AD968C
:1048E000EEADFFADAD978081F30160A1869FB00171
:1048F0001124072E000C880B990B0E949236A99662
:104900002CAD3DAD4EAD5FADA9970E942836082D68
:10491000192D960140E050E00E947639FFEF2F1AE2
:104920003F0AF30180892FEF621A720A1F928F9358
:1049300081E090E02081211180E09F938F939F92EE
:104940008F923F922F925F924F9281EF98E09F93C8
:104950008F93FF92EF920E94F4398E2D9F2D0E942B
:10496000DF340E940A350FB6F894BEBE0FBEADBE4E
:10497000F0E12F16310409F077CFE1962EAD3FAD6F
:10498000E1970FB6F8943EBF0FBE2DBF1EC0F12CAD
:10499000C70101969F938F938AE099E09F938F932D
:1049A0008E010F5F1F4F1F930F930E94F439C801B0
:1049B0000E94DF340E940A35C7010E948D310F909A
:1049C0000F900F900F900F900F90AF968EAD9FAD00
:1049D000AF970FB6F8949EBF0FBE8DBFC059DF4F83
:1049E0000FB6F894DEBF0FBECDBFDF91CF911F9100
:1049F0000F91FF90EF90DF90CF90BF90AF909F907E
:104A00008F907F906F905F904F903F902F90089580
:104A10002F923F924F925F926F927F928F929F92CE
:104A2000AF92BF92CF92DF92EF92FF920F931F93BC
:104A3000CF93DF93CDB7DEB7C656D1090FB6F89442
:104A4000DEBF0FBECDBF082F2DB63EB6811104C00C
:104A500082E7898B8A8B03C08AE5898B8A8B62E027
:104A6000CE0141960E94E6358091AF0B811106C0C0
:104A70000E94B6358091AF0B8823D1F38091AF0BA4
:104A8000882309F419C18091B40C811115C180915A
:104A9000930C823008F42EC10E941B3610E0C8012E
:104AA0000E947531EEE1FCE0808190E0982F88272C
:104AB00022815C01A22A8091930C90E001970397D8
:104AC0000CF418C16894EE24E1F8F12C26E3209F41
:104AD000C001219F900D11249C012350334F2901C7
:104AE000C9010496A5969FAF8EAFA597F90133969D
:104AF000A796FFAFEEAFA79798012F5F3F4F6F9636
:104B00003FAF2EAF6F97CE0143966B969FAF8EAFA0
:104B10006B97C70102976C011AF4EFEFCE1ADE0A09
:104B2000D594C794F201EC0DFD1D86818111B8C0AA
:104B30006DB67EB6A596EEADFFADA5976081862ECB
:104B4000912CC40105962DB73EB7281B390B0FB623
:104B5000F8943EBF0FBE2DBF8DB79EB701966D96E0
:104B60009FAF8EAF6D9770E080E090E00E9490362E
:104B70009B01AC0160E070E080E291E40E9481372B
:104B8000A3966CAF7DAF8EAF9FAFA397A796EEAD08
:104B9000FFADA7978081F201EE0DFF1D66A1869FF4
:104BA000B0011124072E000C880B990B0E9492363D
:104BB000A3962CAD3DAD4EAD5FADA3970E942836B8
:104BC0006C960FAD6C976D961FAD6D97940140E09C
:104BD00050E00E947639F701EE0FFF1FE25EF34FBF
:104BE000008110E0102F0027FFEFEF1AFF0AF701F6
:104BF000EE0FFF1FE25EF34F8081082B21E030E0D3
:104C000002C0220F331FCA94E2F76901C9018A2149
:104C10009B219F938F931F930F936D963FAD6D973D
:104C20003F936C968FAD6C978F936F969FAD6F97F8
:104C30009F936E96EFAD6E97EF9326E139E03F9329
:104C40002F936B969FAD6B979F936A96EFAD6A9784
:104C5000EF930E94F4392DB73EB7245F3F4F0FB654
:104C6000F8943EBF0FBE2DBF012B79F481E090E098
:104C7000CA94CD2811F080E090E08A219B21892BF5
:104C800021F08BE492E00E94DF34CE0143960E9433
:104C9000DF340E940A350FB6F8947EBE0FBE6DBE9B
:104CA0008FEFE81AF80A8091930C90E00197E816CC
:104CB000F9060CF42ECF1EC010E0C80101969F9398
:104CC0008F9389E299E09F938F93FE0131967F0144
:104CD000FF93EF930E94F439C7010E94DF340E94D2
:104CE0000A35C8010E948D310F900F900F900F90E0
:104CF0000F900F900FB6F8943EBE0FBE2DBECA594E
:104D0000DF4F0FB6F894DEBF0FBECDBFDF91CF915E
:104D10001F910F91FF90EF90DF90CF90BF90AF90D9
:104D20009F908F907F906F905F904F903F902F90CB
:104D300008952F923F924F925F926F927F928F923F
:104D40009F92AF92BF92CF92DF92EF92FF920F931A
:104D50001F93CF93DF93CDB7DEB729970FB6F894A3
:104D6000DEBF0FBECDBF8987962E842E4DB65EB6B0
:104D70002DB63EB621E0421317C0E82EF12C81E09B
:104D800090E02FEF260F02C0880F991F2A95E2F7B7
:104D9000F701EE0FFF1FEE0DFF1DE755F44F2081C9
:104DA0003181822B932B19C03985E32EF12C81E0C0
:104DB00090E02FEF260F02C0880F991F2A95E2F787
:104DC00080959095F701EE0FFF1FEE0DFF1DE75543
:104DD000F44F2081318182239323F701EE0FFF1FCF
:104DE000EE0DFF1DE755F44F918380830E949934A7
:104DF00086E38E9D80018F9D100D11240350134F6B
:104E0000F8016481A62EB12CC50149962DB73EB795
:104E1000281B390B0FB6F8943EBF0FBE2DBF8DB7C0
:104E20009EB701966C01C5010596EDB7FEB7E81B6C
:104E3000F90B0FB6F894FEBF0FBEEDBF2DB73EB70E
:104E40002F5F3F4F390170E080E090E00E94903684
:104E50009B01AC0160E070E080E291E40E94813748
:104E60006D837E838F839887E92DF0E0E00FF11F3B
:104E700085A1F8016381869FB0011124072E000CE3
:104E8000880B990B0E9492362D813E814F81588567
:104E90000E942836062D172D950140E050E00E9413
:104EA000763981E090E0881280E09F938F937F9223
:104EB0006F921F929F92C70101969F938F9386E3F3
:104EC00099E09F938F93DF92CF920E94F4398C2DBB
:104ED0009D2D0E94DF340E941D352DB73EB7245F03
:104EE0003F4F0FB6F8943EBF0FBE2DBF398531112D
:104EF00002C08CE501C084E78983F701EE0FFF1F34
:104F0000EE0DFF1DE755F44F908121812A839B838D
:104F1000920F890F8C8364E0CE0101960E94E635E2
:104F20008091AF0B811106C00E94B6358091AF0B06
:104F30008823D1F38091AF0B882379F08091B40C52
:104F400081110BC0C7010E9475318091930C813093
:104F500021F480911E0C882349F0C7010E948D31F5
:104F60000FB6F8943EBE0FBE2DBE05C00FB6F89426
:104F70003EBE0FBE2DBE0FB6F8945EBE0FBE4DBE38
:104F800029960FB6F894DEBF0FBECDBFDF91CF914B
:104F90001F910F91FF90EF90DF90CF90BF90AF9057
:104FA0009F908F907F906F905F904F903F902F9049
:104FB0000895EF92FF920F931F93CF93DF93CDB796
:104FC000DEB766970FB6F894DEBF0FBECDBF082FD1
:104FD000811103C085E7898B02C08DE5898B1A8A10
:104FE0006B8B4C8B5D8B460F6989460F540F5E8B24
:104FF00066E0CE0141960E94E6358091AF0B8111AB
:1050000006C00E94B6359091AF0B9923D1F38091E1
:10501000AF0B8823D9F18091B40C811137C010E017
:10502000C8010E947531C80101969F938F938DE44A
:1050300099E09F938F93CE0101967C019F938F936C
:105040000E94F439C7010E94DF340F900F900F9037
:105050000F900F900F9080911E0C882319F08F3FB6
:1050600059F00DC0000F111FF801EB55F24F82E00F
:1050700080830E941D3528C00E94213525C082EA08
:1050800094E00E94DF340E940A351EC010E0C8017F
:1050900001969F938F938CE599E09F938F93CE0118
:1050A00001967C019F938F930E94F439C7010E945F
:1050B000DF340E940A35C8010E948D310F900F9095
:1050C0000F900F900F900F9066960FB6F894DEBF7A
:1050D0000FBECDBFDF91CF911F910F91FF90EF9049
:1050E0000895EF92FF920F931F93CF93DF93CDB765
:1050F000DEB765970FB6F894DEBF0FBECDBF082FA1
:10510000811103C085E7898B02C08DE5898B81E021
:105110008A8B6B8B7C8B89898F5F680F760F7D8B79
:1051200065E0CE0141960E94E6358091AF0B81117A
:1051300006C00E94B6359091AF0B9923D1F38091B0
:10514000AF0B8823D9F18091B40C811137C010E0E6
:10515000C8010E947531C80101969F938F938FE615
:1051600099E09F938F93CE0101967C019F938F933B
:105170000E94F439C7010E94DF340F900F900F9006
:105180000F900F900F9080911E0C882319F08F3F85
:1051900059F00DC0000F111FF801EB55F24F83E0DD
:1051A00080830E941D3528C00E94213525C082EAD7
:1051B00094E00E94DF340E940A351EC010E0C8014E
:1051C00001969F938F938FE799E09F938F93CE01E2
:1051D00001967C019F938F930E94F439C7010E942E
:1051E000DF340E940A35C8010E948D310F900F9064
:1051F0000F900F900F900F9065960FB6F894DEBF4A
:105200000FBECDBFDF91CF911F910F91FF90EF9017
:1052100008952F923F924F925F926F927F928F925A
:105220009F92AF92BF92CF92DF92EF92FF920F9335
:105230001F93CF93DF93CDB7DEB7AF970FB6F89438
:10524000DEBF0FBECDBFD82E4DB65EB6811103C0F6
:1052500086E789A302C08EE589A31AA289A18BA340
:1052600063E0CE0181960E94E6358091AF0B8111FB
:1052700006C00E94B6358091AF0B8823D1F3809190
:10528000AF0B882309F40AC18091B40C811106C1C7
:1052900080911F0C8111E6C00E941B360D2D10E07D
:1052A000C8010E9475318091930C90E00197181607
:1052B00019060CF0D4C0E12CF12C98012F5F3F4F60
:1052C0003DA32CA3CE0101963C0126E3209FC00103
:1052D000219F900D1124FC01E350F34F1F019F010A
:1052E0002C5F3F4F3BA72AA7CF0103969DA78CA712
:1052F0005FA64EA65D2CF701EE0FFF1FE25EF34F97
:105300008081882309F49DC0CDB6DEB68701FF20D9
:1053100014F40F5F1F4F15950795C80101969F93D1
:105320008F939DA19F93ECA1EF9323E939E03F93E5
:105330002F937F926F920E94F439C3010E94DF3451
:10534000EAA5FBA56081A62EB12CC50105962DB757
:105350003EB7285F3F4F0FB6F8943EBF0FBE2DBF3C
:10536000EDB7FEB7E81BF90B0FB6F894FEBF0FBE02
:10537000EDBF2DB73EB72F5F3F4F490170E080E092
:1053800090E00E9490369B01AC0160E070E080E20A
:1053900091E40E9481376EA37FA388A799A7ECA50B
:1053A000FDA58081F101E00FF11F66A1869FB0018C
:1053B0001124072E000C880B990B0E9492362EA107
:1053C0003FA148A559A50E942836082D192D950101
:1053D00040E050E00E9476399F928F9227ED39E0AD
:1053E0003F932F937F926F920E94F439C3010E94E2
:1053F000DF34F701EE0FFF1FE25EF34F808190E094
:10540000982F8827EFEFEE1AFE0AF701EE0FFF1F25
:10541000E25EF34F2081822B9F938F932BE338E042
:105420003F932F939F928F920E94F439882D992D4C
:105430000E94DF340E940A350FB6F894DEBE0FBE1C
:10544000CDBE9FEFE91AF90A8091930C90E0019785
:10545000E816F9060CF44FCFD52C4EA45FA48D2D81
:10546000D7DA3AC08D2D90E001969F938F9386EA0C
:1054700099E09F938F938E010F5F1F4F1F930F93A0
:105480000E94F439C8010E94DF340E940A350F904F
:105490000F900F900F900F900F901EC0ED2CF12CDD
:1054A000C70101969F938F938AEB99E09F938F9307
:1054B0008E010F5F1F4F1F930F930E94F439C80195
:1054C0000E94DF340E940A35C70127D70F900F9042
:1054D0000F900F900F900F900FB6F8945EBE0FBE16
:1054E0004DBEAF960FB6F894DEBF0FBECDBFDF91B5
:1054F000CF911F910F91FF90EF90DF90CF90BF90D1
:10550000AF909F908F907F906F905F904F903F9063
:105510002F9008952F923F924F925F926F927F92B9
:105520008F929F92AF92BF92CF92DF92EF92FF92B3
:105530000F931F93CF93DF93CDB7DEB7A1970FB62D
:10554000F894DEBF0FBECDBFE82ECDB6DEB681111A
:1055500003C086E78F8F02C08EE58F8F81E088A31E
:105560008F8D8F5F89A363E0CE014F960E94E63551
:105570008091AF0B811106C00E94B6359091AF0BA0
:105580009923D1F38091AF0B882309F494C08091C3
:10559000B40C811190C080911F0C811165C08DB633
:1055A0009EB60E941B36F12CC7019FD6EEE1FCE0AF
:1055B000008110E0102F00278281082B86E38E9D4A
:1055C000F0018F9DF00D1124E350F34F6481A62E5E
:1055D000B12CC50105962DB73EB7281B390B0FB668
:1055E000F8943EBF0FBE2DBF8DB79EB701961C012C
:1055F00070E080E090E00E9490369B01AC0160E09A
:1056000070E080E291E40E9481372B013C01B801F7
:1056100080E090E00E949036A30192010E9428361B
:10562000022D132D950140E050E00E9476393F9203
:105630002F929FEFE91AF90AFF92EF928EEC99E010
:105640009F938F938E010F5F1F4F1F930F930E94A5
:10565000F439C8010E94DF340E940A350FB6F8946D
:105660009EBE0FBE8DBE44C00E2D10E0C801019637
:105670009F938F938BED99E09F938F939E012F5F64
:105680003F4F59013F932F930E94F439C5010E9467
:10569000DF340E940A35000F111FF801EB55F24F5D
:1056A00081E080838E2DB5DD0F900F900F900F90CD
:1056B0000F900F901DC0F12CC70101969F938F93FF
:1056C0008AEE99E09F938F938E010F5F1F4F1F9378
:1056D0000F930E94F439C8010E94DF340E940A35FA
:1056E000C7011BD60F900F900F900F900F900F9047
:1056F0000FB6F894DEBE0FBECDBEA1960FB6F894DD
:10570000DEBF0FBECDBFDF91CF911F910F91FF90F4
:10571000EF90DF90CF90BF90AF909F908F907F9051
:105720006F905F904F903F902F9008958F929F922F
:10573000AF92BF92CF92DF92EF92FF920F931F939F
:10574000CF93DF93CDB7DEB7C554D1090FB6F89428
:10575000DEBF0FBECDBF182FE82EF12C26E3829FAF
:10576000F0011124E350F34F8081882309F4F8C03D
:10577000111105C087E722968FAF229704C08FE5ED
:1057800022968FAF229723961FAE239722968FAD36
:10579000229724968FAF249763E0CE018F5B9F4FB3
:1057A0000E94E6358091AF0B811106C00E94B6358C
:1057B0008091AF0B8823D1F38091AF0B882309F43C
:1057C000EBC08091B40C8111E7C08091930C8230C2
:1057D00008F4E2C00E941B36C70187D58EE18E9D7A
:1057E000F0018F9DF00D1124E759F24F13821482BE
:1057F0001582819FC0011124DC01A159B24FFC0127
:10580000E558F24F1D92AE17BF07E1F78957924F47
:105810001192E817F907E1F70EE11CE0F801928117
:1058200084812EE12E9D60012F9DD00C11249601C4
:105830002459324F49012081F401208391838283CE
:10584000FFEFEF1AFF0AFF92EF928DEF99E09F931F
:105850008F939E012F5F3F4F59013F932F930E94DB
:10586000F439C5010E94DF34C4010E94DF34F8011D
:10587000A08592848484768560895289448936899A
:10588000208D928D848DF601E159F24F7F01F80150
:10589000B681F701B083A18392828382748365838A
:1058A00056834783308721879287838786EA93E0F0
:1058B0000E94DF34C7010E94DF34F801A0A192A04A
:1058C00084A076A160A552A544A536A520A992A9D9
:1058D00084A9F601E558F24F7F01F801B68DF70172
:1058E000B083A183928283827483658356834783C6
:1058F000308721879287838786EA93E00E94DF348E
:10590000C7010E94DF34F80186A925968FAF25973D
:1059100080AD26968FAF2697CE018C5B9F4F15D515
:10592000F601E759F24F8083918320915E0C21703C
:1059300022831F922F939F938F9388EF93E09F93DF
:105940008F93BF92AF920E94F439C5010E94DF3459
:105950000E940A350FB6F894DEBF0FBECDBF1CC043
:10596000C70101969F938F9385E09AE09F938F9351
:105970008E010F5F1F4F1F930F930E94F439C801D0
:105980000E94DF340E940A35C701C7D40F900F90E0
:105990000F900F900F900F90CB5BDF4F0FB6F894E6
:1059A000DEBF0FBECDBFDF91CF911F910F91FF9052
:1059B000EF90DF90CF90BF90AF909F908F90089521
:1059C0002F923F924F925F926F927F928F929F920F
:1059D000AF92BF92CF92DF92EF92FF920F931F93FD
:1059E000CF93DF93CDB7DEB7C158D1090FB6F89486
:1059F000DEBF0FBECDBFE4968FAFE4972DB73EB7A5
:105A0000C058DF4F39832883C058D040C258DF4F79
:105A100039832883CE57D04090E0E1969FAF8EAF78
:105A2000E19763D4E090930CF12CC701880F991F84
:105A3000EDB7FEB7E81BF90B0FB6F894FEBF0FBE2B
:105A4000EDBF8DB79EB701963C014091930C50E09D
:105A5000440F551F6EE17CE00E94B5396701F1E00B
:105A6000CF1AD10809F402C2212C312C26E3E19689
:105A70004EAD5FADE197249FC001259F900D11248D
:105A8000FC01E350F34FE396FFAFEEAFE39734969C
:105A9000EC96FFAFEEAFEC97E3962EAD3FADE397FC
:105AA0002D5F3F4FEE963FAF2EAFEE975E0131E494
:105AB000A30EB11CAE014F595F4FAB965FAF4EAF17
:105AC000AB97E1968EAC9FACE1975FEF851A950A94
:105AD000CE0101962C017101EE0CFF1CE60CF71CA7
