:10000000A2C10000BDC10000BBC10000B9C1000019
:10001000B7C10000B5C10000B3C10000B1C100000C
:10002000AFC10000ADC10000ABC10000A9C100001C
:10003000A7C10000A5C10000A3C10000A1C100002C
:100040009FC100009DC100009BC1000099C100003C
:1000500097C1000095C1000093C1000091C100004C
:100060008FC100008DC100008BC1000089C100005C
:100070000C945A3585C1000083C100002A0D350D4E
:10008000400D4B0D560D630D7C0D870D920D9D0D92
:10009000A80DB30DD70DE20DED0DF80D4D0E030EAD
:1000A0000E0E1B0E260E310E4D0E4D0E4D0E4D0E2C
:1000B000400E900E9B0EA60EB10EBC0EC70ED20EB9
:1000C000DD0E8B1E791F791F791F791F791F791F0C
:1000D000791F791F791F791F791F791F791F791F60
:1000E000791F941E9D1E791F791F791F791F791F13
:1000F000791F791F791F791F791F791F791F791F40
:10010000791F791F791F791F791F791F791F791F2F
:10011000791F791F791F791F791F791F791F791F1F
:10012000791FA61E791F791F791F791F791F791FE3
:10013000791F791F791F791F791F791F791F791FFF
:10014000791F791FAF1E791F791F791F791F791FBA
:10015000791F791F791F791F791F791F791F791FDF
:10016000791FB81EC11ECA1ED31EDC1E51205A2084
:1001700063206C2075207E20872090209920A2206B
:10018000AB20E820F120222E2B2E342E3B2E442EA5
:100190004D2E562E5F2E682E6F2E762EBC2EC32E21
:1001A000CA2ED12EE82FEB2FF22FF52FF82F123079
:1001B00023311E30363058305B305E306130643071
:1001C000713083308F30B230BE3007634236B79B18
:1001D000D8A71A39685618AEBAAB558C1D3CB7CCA7
:1001E0005763BD6DEDFD753EF6177231BF0000001F
:1001F000803F08000000BE922449123EABAAAA2A02
:10020000BECDCCCC4C3E00000080BEABAAAAAA3E1C
:1002100000000000BF000000803F00000000000858
:100220004178D3BB4387D1133D190E3CC3BD4282F5
:10023000AD2B3E68EC8276BED98FE1A93E4C80EFB3
:10024000FFBE01C4FF7F3F000000000000407A10A5
:10025000F35A00A0724E18090010A5D4E80000E877
:100260007648170000E40B54020000CA9A3B0000D5
:1002700000E1F505000080969800000040420F0064
:100280000000A08601000000102700000000E80325
:10029000000000006400000000000A0000000000F0
:1002A0000100000000002C76D888DC674F0823DFAF
:1002B000C1DFAE59E1B1B796E5E3E453C63AE65182
:1002C000997696E8E6C28426EB898C9B62ED407CA9
:1002D0006FFCEFBC9C9F40F2BAA56FA5F490055A45
:1002E0002AF75C936B6CF9676DC11BFCE0E40D476A
:1002F000FEF520E6B500D0ED902E0300943577058D
:100300000080841E080000204E0A000000C80C3344
:100310003333330F986E12831141EF8D2114893BD3
:10032000E65516CFFEE6DB18D1844B381BF77C1D53
:10033000901DA4BBE424203284725E228100C9F1A6
:1003400024ECA1E53D2711241FBECFEFD0E1DEBF95
:10035000CDBF1AE0A0E0B1E0EEE9FEE702C00590F3
:100360000D92A238B107D9F72CE0A2E8BAE001C09B
:100370001D92A93AB207E1F70E940D330C944D3F4C
:100380003FCECF92DF92EF92FF920F931F93CF93C6
:10039000DF93CDB7DEB7C554D1090FB6F894DEBFF1
:1003A0000FBECDBF22961FAE229723961FAE239776
:1003B00024961FAE24978091D50A813041F487E3BB
:1003C00022968FAF229724968FAF249716C0823043
:1003D00068F087E322968FAF229782E023968FAF53
:1003E000239789E324968FAF249707C08DE291E08D
:1003F0000E9410350E943B35E1C063E0CE018F5B67
:100400009F4F0E9413368091AF0A811106C00E944F
:10041000E3358091AF0A8823D1F38091AF0A882316
:1004200009F4BFC08091B40B8111BBC08091930BC4
:10043000823008F4C3C00E9448368AE08093A80A3C
:10044000ADEBBAE0E9ECFAE01D92EA17FB07E1F741
:1004500085ED9AE011928E179F07E1F70F2EFEE1CE
:10046000EF2EFBE0FF2EF02DF7019281848106EB49
:100470001AE02081F8012483958386838DE391E03F
:100480000E9410358AEB9AE00E941035F701A08592
:10049000D284C48476856089528944893689208DC6
:1004A000928D848DB681F801B783A087D186C286EC
:1004B00073876487558746873787208B918B828B1C
:1004C00086EA92E00E9410358DEB9AE00E9410358A
:1004D000F701A0A1D2A0C4A076A160A552A544A511
:1004E00036A520A992A984A9B68DF801B38BA48B57
:1004F000D58AC68A778B608F518F428F338F248F36
:10050000958F868F86EA92E00E94103589EC9AE0FA
:100510000E941035F70186A925968FAF259780ADEB
:1005200026968FAF2697CE018C5B9F4F0E9493310A
:10053000F801808391832091D50A223091F4209193
:10054000930B213271F420915C0B30E0322F222783
:1005500040915E0B242B322F31703383269521700E
:100560002283E6EBFAE023811F922F9322811F92D0
:100570002F939F938F938CE795E09F938F938E019A
:100580000F5F1F4F1F930F930E941F3AC8010E94D5
:1005900010350E943B350FB6F894DEBF0FBECDBFBD
:1005A0000DC084E491E00E9410350E943B3580919B
:1005B000A80A882319F081508093A80ACB5BDF4FEB
:1005C0000FB6F894DEBF0FBECDBFDF91CF911F9164
:1005D0000F91FF90EF90DF90CF900895CF93DF932E
:1005E000CDB7DEB727970FB6F894DEBF0FBECDBFED
:1005F00080E591E00E94103587E3898381E08A835A
:100600001B821C821D828091710B880F8E83885CF7
:100610008F8367E0CE0101960E9413368091AF0A66
:10062000811106C00E94E3358091AF0A8823D1F37F
:100630008091AF0A882391F08091B40B81110EC094
:100640008AE08093A80A8091930B813039F48091DD
:100650001E0B811103C00E944E3509C00E94563501
:100660008091A80A882319F081508093A80A2796C0
:100670000FB6F894DEBF0FBECDBFDF91CF910895C6
:10068000CF93DF9300D01F92CDB7DEB787E3898386
:1006900083E08A838AE38B8363E0CE0101960E9424
:1006A00013368091AF0A811106C00E94E335809114
:1006B000AF0A8823D1F38091AF0A882329F1809172
:1006C000B40B811121C08AE08093A80A8091930B1A
:1006D0008330D1F4EEE1FBE0408150E0542F442719
:1006E0008281482BEEEEFAE080E090E09A01082E3D
:1006F00002C0369527950A94E2F72170219301965E
:100700008031910599F70DC08FE591E00E94103579
:100710000E943B358091A80A882319F0815080936C
:10072000A80A0F900F900F90DF91CF910895EF924C
:10073000FF920F931F93CF93DF93CDB7DEB76597EB
:100740000FB6F894DEBF0FBECDBF87E3898384E088
:100750008A83E9E6FBE0868197819B838C836481B1
:100760007581DE011596AE014B5E5F4F2CEF3FEFBA
:1007700003E010E0FE013196C9018E1B9F0B8A0F2A
:100780009B1F7B0102C0F694E7948A95E2F7E0FC98
:1007900002C0812F01C0802F8D93A417B50751F798
:1007A00080E090E02191820F911DE417F507D1F7C9
:1007B0008D8B65E1CE0101960E9413368091AF0AC0
:1007C000811106C00E94E3358091AF0A8823D1F3DE
:1007D00082E791E00E9410358091AF0A882391F062
:1007E0008091B40B81110EC08AE08093A80A809199
:1007F000930B813039F480911E0B811103C00E944C
:100800004E3509C00E9456358091A80A882319F0F8
:1008100081508093A80A65960FB6F894DEBF0FBE8C
:10082000CDBFDF91CF911F910F91FF90EF90089571
:10083000CF93DF93CDB7DEB765970FB6F894DEBFE1
:100840000FBECDBF87E3898384E08A831B821C822D
:10085000FE013596AE014B5E5F4F11924E175F075A
:10086000E1F7FE01319680E090E02191820F911D29
:10087000E417F507D1F78D8B65E1CE0101960E9453
:1008800013368091AF0A811106C00E94E335809132
:10089000AF0A8823D1F383E891E00E94103580915C
:1008A000AF0A882391F08091B40B81110EC08AE0C9
:1008B0008093A80A8091930B813039F480911E0BAC
:1008C000811103C00E944E3509C00E9456358091A7
:1008D000A80A882319F081508093A80A65960FB65C
:1008E000F894DEBF0FBECDBFDF91CF9108952F9258
:1008F0003F924F925F926F927F928F929F92AF92B0
:10090000BF92CF92DF92EF92FF920F931F93CF93FC
:10091000DF93CDB7DEB7CF54D1090FB6F894DEBF61
:100920000FBECDBF2DB73EB760963FAF2EAF6097DD
:1009300087E3898385E08A838CE38B8363E0CE0140
:1009400001960E9413368091AF0A811106C00E9461
:10095000E3358091AF0A8823D1F38091AF0A8823D1
:1009600009F40AC18091B40B811106C18091930BE7
:10097000823008F40EC10E9448368AE08093A80AAB
:10098000EEE1FBE0808190E0982F88272281AC0186
:10099000422B2E965FAF4EAF2E978091930B90E037
:1009A000019703970CF4F5C00F2EF2E24F2EFBE0F7
:1009B0005F2EF02D6894222421F8312CCE0104966C
:1009C00026969FAF8EAF26976DB67EB6F201E08079
:1009D000F12CFE2CEE248281E82AC10102976C01E1
:1009E0001AF4FFEFCF1ADF0AD594C7946091DA0AA0
:1009F000A62EB12CC50106962DB73EB7281B390B84
:100A00000FB6F8943EBF0FBE2DBF4DB75EB74F5F18
:100A10005F4F28965FAF4EAF28974601992470E04C
:100A200080E090E00E94BD369B01AC0160E070E088
:100A300080E291E40E94AE372C966CAF7DAF8EAF12
:100A40009FAF2C97F401EE0FFF1FEB52F54F61A5FE
:100A500072A580E090E00E94BD362C962CAD3DAD95
:100A60004EAD5FAD2C970E9455362C966CAF7DAF86
:100A70008EAF9FAF2C976091D80A7091D90A80E011
:100A800090E00E94BD369B01AC012C966CAD7DAD13
:100A90008EAD9FAD2C970E944B3727960FAD2797B1
:100AA00028961FAD2897950140E050E00E94A1399B
:100AB00081E090E002C0880F991FCA94E2F76C01B0
:100AC0002E968EAD9FAD2E978C219D219F938F9357
:100AD000FF92EF9228969FAD28979F932796EFADB0
:100AE0002797EF93FFEF8F1A9F0A9F928F9226E925
:100AF00031E03F932F9326965FAD26975F9325961F
:100B00008FAD25978F930E941F3AEDB7FEB73C96A5
:100B10000FB6F894FEBF0FBEEDBFEF2899F481E049
:100B200090E0CA94CD2811F080E090E02E962EAD92
:100B30003FAD2E9782239323892B21F08BE491E004
:100B40000E941035CE0104960E9410350E943B355C
:100B50000FB6F8947EBE0FBE6DBE32E0230E311C80
:100B60008091930B44E0440E511C90E001972816AD
:100B700039060CF429CF0DC08DEA91E00E941035A2
:100B80000E943B358091A80A882319F081508093F8
:100B9000A80A60968EAD9FAD60970FB6F8949EBF81
:100BA0000FBE8DBFC15BDF4F0FB6F894DEBF0FBE27
:100BB000CDBFDF91CF911F910F91FF90EF90DF900C
:100BC000CF90BF90AF909F908F907F906F905F90ED
:100BD0004F903F902F900895CF93DF9300D000D097
:100BE00000D0CDB7DEB79091D50A923008F455C049
:100BF0009091A70A923039F48DEB91E00E94103564
:100C00000E943B3550C097E3998396E09A838B838B
:100C10007C836D83680F635C670F6E8366E0CE0133
:100C200001960E9413368091AF0A811106C00E947E
:100C3000E3358091AF0A8823D1F382ED91E00E94E1
:100C400010358091AF0A8823F1F08091B40B8111A7
:100C50001AC08AE08093A80A80911E0B882319F09D
:100C60008F3F39F009C083E08093A70A0E944E3578
:100C70001AC00E94523517C082EA93E00E941035D4
:100C80000E943B3510C00E9456358091A80A8823E7
:100C900051F081508093A80A06C08FED91E00E9428
:100CA00010350E943B3526960FB6F894DEBF0FBE76
:100CB000CDBFDF91CF910895CF93DF9300D000D0C7
:100CC0001F92CDB7DEB72091D50A223008F450C06C
:100CD0002091A70A223039F482EF91E00E9410356A
:100CE0000E943B354BC027E3298327E02A839B835F
:100CF0008C83825C980F9D8365E0CE0101960E94F3
:100D000013368091AF0A811106C00E94E3358091AD
:100D1000AF0A8823D1F388E092E00E9410358091D9
:100D2000AF0A8823D9F08091B40B811117C08AE0F3
:100D30008093A80A80911E0B882319F08F3F21F021
:100D400006C00E944E351AC00E94523517C082EA72
:100D500093E00E9410350E943B3510C00E9456352A
:100D60008091A80A882351F081508093A80A06C078
:100D700086E192E00E9410350E943B350F900F9063
:100D80000F900F900F90DF91CF9108952F923F9287
:100D90004F925F926F927F928F929F92AF92BF928B
:100DA000CF92DF92EF92FF920F931F93CF93DF9337
:100DB000CDB7DEB7C954D1090FB6F894DEBF0FBE68
:100DC000CDBF2DB63EB68091D50A823008F4FFC063
:100DD00087E322968FAF229788E023968FAF2397E1
:100DE0008FE324968FAF249763E0CE018F5B9F4FF4
:100DF0000E9413368091AF0A811106C00E94E3352C
:100E00008091AF0A8823D1F38091AF0A882309F437
:100E1000D0C08091B40B8111CCC080911F0B811187
:100E2000C1C00E9448368AE08093A80A8091930B43
:100E300090E00197181619060CF0B2C00F2EFEE1D3
:100E4000CF2EFBE0DF2EF02DE12CF12CF60180817E
:100E5000882309F497C04DB65EB690E0982F882796
:100E600022813C01622A6091DA0A862E912CC4010B
:100E700006962DB73EB7281B390B0FB6F8943EBF28
:100E80000FBE2DBF8DB79EB7019626969FAF8EAF32
:100E90002697C70102975C011AF4EFEFAE1ABE0A5B
:100EA000B594A794BB2470E080E090E00E94BD362A
:100EB0009B01AC0160E070E080E291E40E94AE37FB
:100EC0002A966CAF7DAF8EAF9FAF2A97F501EE0FDC
:100ED000FF1FEB52F54F61A572A580E090E00E94E4
:100EE000BD362A962CAD3DAD4EAD5FAD2A970E9422
:100EF00055362A966CAF7DAF8EAF9FAF2A97609123
:100F0000D80A7091D90A80E090E00E94BD369B011A
:100F1000AC012A966CAD7DAD8EAD9FAD2A970E9437
:100F20004B3725960FAD259726961FAD2697940132
:100F300040E050E00E94A1397F926F922696FFAD6B
:100F40002697FF9325962FAD25972F933FEFA31A52
:100F5000B30ABF92AF928AE292E09F938F9321E00F
:100F600030E02C0F3D1F3F932F930E941F3ACE017C
:100F700001960E9410350E943B350FB6F8945EBE74
:100F80000FBE4DBE32E0E30EF11C8091930B94E056
:100F9000C90ED11C90E00197E816F9060CF456CF63
:100FA000A6DC1BC08AE392E00E9410350E943B350C
:100FB00014C086E492E00E9410350E943B35809177
:100FC000A80A882351F081508093A80A06C082E5C0
:100FD00092E00E9410350E943B350FB6F8943EBE59
:100FE0000FBE2DBEC75BDF4F0FB6F894DEBF0FBE3E
:100FF000CDBFDF91CF911F910F91FF90EF90DF90C8
:10100000CF90BF90AF909F908F907F906F905F90A8
:101010004F903F902F9008952F923F924F925F9262
:101020006F927F928F929F92AF92BF92CF92DF92F8
:10103000EF92FF920F931F93CF93DF93CDB7DEB75D
:10104000C754D1090FB6F894DEBF0FBECDBFEDB6C1
:10105000FEB68091D50A823008F4C6C087E3229696
:101060008FAF229789E023968FAF239780E4249651
:101070008FAF249763E0CE018F5B9F4F0E941336A2
:101080008091AF0A811106C00E94E3358091AF0ABA
:101090008823D1F38091AF0A882309F497C0809107
:1010A000B40B811193C080911F0B811176C08DB656
:1010B0009EB60E9448368AE08093A80AEEE1FBE0E3
:1010C000008110E0102F00278281082B0F2EF5EDF4
:1010D000AF2EFAE0BF2EF02DF5016581C62ED12C82
:1010E000C60106962DB73EB7281B390B0FB6F894EC
:1010F0003EBF0FBE2DBF8DB79EB701961C0170E09D
:1011000080E090E00E94BD369B01AC0160E070E0A1
:1011100080E291E40E94AE372B013C01F50163812E
:10112000748180E090E00E94BD3628966CAF7DAF60
:101130008EAF9FAF2897B80180E090E00E94BD3647
:10114000A30192010E9455369B01AC0128966CAD1B
:101150007DAD8EAD9FAD28970E944B37022D132D8C
:10116000960140E050E00E94A1393F922F9280E624
:1011700092E09F938F938E010F5F1F4F1F930F93EA
:101180000E941F3AC8010E9410350E943B350FB6DD
:10119000F8949EBE0FBE8DBE2DC080911E0B811196
:1011A0000BC08AE692E00E9410350E943B3581E038
:1011B0008093A70AEBDD1EC084E792E00E94103501
:1011C0000E943B3581E08093A70A14C08EE792E02D
:1011D0000E9410350E943B358091A80A882351F067
:1011E00081508093A80A06C08AE892E00E941035D8
:1011F0000E943B350FB6F894FEBE0FBEEDBEC95B34
:10120000DF4F0FB6F894DEBF0FBECDBFDF91CF9199
:101210001F910F91FF90EF90DF90CF90BF90AF9014
:101220009F908F907F906F905F904F903F902F9006
:101230000895CF93DF9300D01F92CDB7DEB795E32B
:1012400099838A838B5C8B8363E0CE0101960E9435
:1012500013368091AF0A811106C00E94E335809158
:10126000AF0A8823D1F388E992E00E94103580917B
:10127000AF0A8823A9F08091B40B811111C08AE0D4
:101280008093A80A80911E0B811107C080911F0BCB
:10129000882319F00E944E350CC00E94563509C0B3
:1012A0000E9456358091A80A882319F081508093B6
:1012B000A80A0F900F900F90DF91CF910895CF93D0
:1012C000DF9300D01F92CDB7DEB787E389838AE032
:1012D0008A8381E48B8363E0CE0101960E941336FA
:1012E0008091AF0A811106C00E94E3358091AF0A58
:1012F0008823D1F380EA92E00E9410358091AF0AF2
:101300008823A9F08091B40B811111C08AE08093E9
:10131000A80A80911E0B811107C080911F0B8823A2
:1013200019F00E944E350CC00E94563509C00E942B
:1013300056358091A80A882319F081508093A80A15
:101340000F900F900F90DF91CF9108952F923F92C1
:101350004F925F926F927F928F929F92AF92BF92C5
:10136000CF92DF92EF92FF920F931F93CF93DF9371
:10137000CDB7DEB7C255D1090FB6F894DEBF0FBEA8
:10138000CDBF6DB67EB681E389838A8362E0CE01EC
:1013900001960E9413368091AF0A811106C00E9407
:1013A000E3358091AF0A8823D1F38091AF0A882377
:1013B00009F4EDC18091B40B8111ECC18091930BC4
:1013C000823008F429C20E9448368AE08093A80A35
:1013D0000F2EF5EDCF2EFAE0DF2EF02D0EE11BE003
:1013E000F8018081F6018083F801828124968FAF15
:1013F0002497848125968FAF2597CE018D5B9F4FD3
:101400000E949331F60192838183F8018680912CAA
:10141000982C88248085882AF60194828382F8019A
:101420006285F6016583F8012685848590E0022EA9
:1014300002C0880F991F0A94E2F7822BF601978366
:101440008683F801A089B0E0BA2FAA278289A82B49
:101450000F2EFEEDAF2EFAE0BF2EF02DF50180E04D
:1014600090E001E010E051E070E09801082E02C029
:10147000220F331F0A94E2F72A233B23452F232B05
:1014800009F4472F419301968031910571F781E06E
:101490009091320B9F3F09F080E08093DD0A8091AC
:1014A000930B90E001970C97A4F0E4E3FBE0AEEF20
:1014B000BAE02BE030E0808190E08D939D932F5F28
:1014C0003F4F8091930B329690E001972817390790
:1014D00094F3462E512C2DB73EB761963FAF2EAFF9
:1014E0006197C2010696EDB7FEB7E81BF90B0FB680
:1014F000F894FEBF0FBEEDBF2DB73EB72F5F3F4F35
:10150000690170E080E090E00E94BD369B01AC0173
:1015100060E070E080E291E40E94AE3729966CAF03
:101520007DAF8EAF9FAF2997B40180E090E00E941D
:10153000BD3629962CAD3DAD4EAD5FAD29970E94CD
:1015400055360C2D1D2D920140E050E00E94A1392E
:10155000E5EDFAE080851F928F9387818F938681D6
:101560008F9385811F928F93DF92CF9282818F9389
:1015700081818F9380811F928F9388EA92E09F935D
:101580008F938E010D5F1F4F1F930F930E941F3A81
:10159000C8010E9410350E943B350E94C1018DB7E1
:1015A0009EB740960FB6F8949EBF0FBE8DBF809138
:1015B000B80A813009F01DC163D81BC1742CF50134
:1015C00081915F01FFEF4F1A5F0A813009F0C9C0B6
:1015D000EDB6FEB66091DA0A862E912CC40106960D
:1015E0002DB73EB7281B390B0FB6F8943EBF0FBE80
:1015F0002DBF8DB79EB7019627969FAF8EAF2797C9
:10160000C4018196EDB7FEB7E81BF90B0FB6F8944D
:10161000FEBF0FBEEDBF2DB73EB72F5F3F4F2B96DE
:101620003FAF2EAF2B9770E080E090E00E94BD3678
:101630009B01AC0160E070E080E291E40E94AE3773
:101640002F966CAF7DAF8EAF9FAF2F97F10160816A
:10165000718180E090E00E94BD362F962CAD3DADAB
:101660004EAD5FAD2F970E9455362F966CAF7DAF74
:101670008EAF9FAF2F976091D80A7091D90A80E002
:1016800090E00E94BD369B01AC012F966CAD7DAD04
:101690008EAD9FAD2F970E944B3726960FAD2697A4
:1016A00027961FAD2797940140E050E00E94A13992
:1016B000F60186819781072C02C0969587950A943A
:1016C000E2F7817099279F938F93808590E0072C94
:1016D00002C0959587950A94E2F7817099279F93A8
:1016E0008F9382819381072C02C0969587950A94E7
:1016F000E2F7817099279F938F938081918102C037
:10170000969587957A94E2F7817099279F938F93A6
:10171000F50187851F928F932796FFAD2797FF933B
:1017200026962FAD26972F935F924F9281EC92E0F1
:101730009F938F932B96FFAD2B97FF932A962FADF8
:101740002A972F930E941F3A2A968FAD2A972B969D
:101750009FAD2B970E9410350FB6F894FEBE0FBEBA
:10176000EDBE32E0230E311C80E14816510409F031
:1017700025CF63966EAC7FAC63976196EEADFFADFF
:1017800061970FB6F894FEBF0FBEEDBF45C0C12CE8
:10179000D12C02C0C12CD12C03EE12E05E01F3E08B
:1017A000AF0EB11C0F2EF7EA8F2EFAE09F2EF02D10
:1017B0002FEFC21AD20ADF92CF921F930F93BF92DC
:1017C000AF920E941F3AC5010E9410350E943B351E
:1017D000F40181810F900F900F900F900F900F9058
:1017E000882311F081508183F3E0CF16D10401F7F3
:1017F00013C00F2EFEEF2F2EFAE03F2EF02D412CBE
:10180000512C0F2EF9E6CF2EFBE0DF2EF02D639644
:101810007FAE6EAE6397D2CE0FB6F8947EBE0FBE8B
:101820006DBECE5ADF4F0FB6F894DEBF0FBECDBFF0
:10183000DF91CF911F910F91FF90EF90DF90CF90AC
:10184000BF90AF909F908F907F906F905F904F90E0
:101850003F902F9008950F931F93CF93DF93CDB7B1
:10186000DEB7A2970FB6F894DEBF0FBECDBF86E3FA
:1018700089838A8362E0CE0101960E9413368091AB
:10188000AF0A811106C00E94E3358091AF0A882318
:10189000D1F38091AF0A8823D9F18091B40B8111E3
:1018A00037C08091930B833041F50E9448368AE01F
:1018B0008093A80A1F921F92EEE1FBE080818F7750
:1018C00090E0982F88272281822B9F938F938EEE12
:1018D00092E09F938F938E010D5F1F4F1F930F9385
:1018E0000E941F3AC8010E9410350E943B350FB676
:1018F000F894DEBF0FBECDBF18C080911E0B8111C2
:1019000014C08FEF92E00E9410350E943B350DC04D
:101910008AE093E00E9410350E943B358091A80A2E
:10192000882319F081508093A80AA2960FB6F894E4
:10193000DEBF0FBECDBFDF91CF911F910F910895F4
:101940002F923F924F925F926F927F928F929F92CF
:10195000AF92BF92CF92DF92EF92FF920F931F93BD
:10196000CF93DF93CDB7DEB7CD58D1090FB6F8943A
:10197000DEBF0FBECDBF2DB73EB7C457DF4F398393
:101980002883CC58D040C657DF4F39832883CA58A4
:10199000D0408AE08093A80AC090930BD12CC60156
:1019A000880F991FEDB7FEB7E81BF90B0FB6F89437
:1019B000FEBF0FBEEDBF2DB73EB72F5F3F4F790182
:1019C0004091930B50E0440F551F6EE17BE0C9013D
:1019D0000E94E039360131E0631A710809F499C2B6
:1019E0002701212C312CAE0146585F4FCE57DF4FD7
:1019F00059834883C258D040CE018F5B9F4FCC574C
:101A0000DF4F99838883C458D040F2012081822F10
:101A1000881F8827881F21F0813009F471C16FC2A7
:101A2000822F829586958770813009F4B2C020F0AC
:101A3000823009F448C163C2E22FEF708E2F90E02C
:101A4000FC013197EC30F10508F097C0E25CFF4FE4
:101A50000C948C3989E0E5E1F3E0DE01A65ABF4F32
:101A600001900D928A95E1F788C08AE0EEE1F3E0FB
:101A7000DE01A65ABF4F01900D928A95E1F77DC015
:101A800085E0E1E4F2E0DE01A65ABF4F01900D923D
:101A90008A95E1F772C089E0E8E2F3E0DE01A65A38
:101AA000BF4F01900D928A95E1F767C02AE431E4B7
:101AB0006C963FAF2EAF6C974DE450E06E965FAFE3
:101AC0004EAF6E975AC081E08093A70A81E393E0FE
:101AD0000E9410350E943B3539DC8091D50A823056
:101AE00010F00E94EE02B7DE8091B80A882309F454
:101AF0001CC20E94770419C28CE0E5E4F3E0DE0129
:101B0000A65ABF4F01900D928A95E1F736C088E042
:101B1000E1E5F3E0DE01A65ABF4F01900D928A95F0
:101B2000E1F72BC089E0E9E5F3E0DE01A65ABF4FFB
:101B300001900D928A95E1F720C08AE0E2E6F3E099
:101B4000DE01A65ABF4F01900D928A95E1F715C0AC
:101B500087E0E7EDF3E0DE01A65ABF4F01900D925A
:101B60008A95E1F70AC088E0ECE6F3E0DE01A65AC8
:101B7000BF4F01900D928A95E1F784E793E00E94B0
:101B80001035CE01865A9F4F0E9410350E943B357A
:101B9000B6C1E22FEF708E2F90E0FC013197EF304D
:101BA000F10508F07AC0E65BFF4F0C948C398AE0AF
:101BB000EFE7F3E0DE01A65ABF4F01900D928A9540
:101BC000E1F775C08BE0E9E8F3E0DE01A65ABF4F0C
:101BD00001900D928A95E1F76AC085E0E1E4F2E0B8
:101BE000DE01A65ABF4F01900D928A95E1F75FC0C2
:101BF0008AE0EEE1F3E0DE01A65ABF4F01900D92BC
:101C00008A95E1F754C089E0E5E1F3E0DE01A65AE8
:101C1000BF4F01900D928A95E1F749C08AE491E4A3
:101C20006C969FAF8EAF6C97EDE4F0E06E96FFAFD1
:101C3000EEAF6E973CC089E0E8E2F3E0DE01A65A21
:101C4000BF4F01900D928A95E1F731C089E0E9E537
:101C5000F3E0DE01A65ABF4F01900D928A95E1F79D
:101C600026C089E0EFEFF1E0DE01A65ABF4F0190F8
:101C70000D928A95E1F722E0E7EAFAE0208317C0A7
:101C80008AE0E4E9F3E0DE01A65ABF4F01900D922D
:101C90008A95E1F70E9477040AC088E0EEE9F3E054
:101CA000DE01A65ABF4F01900D928A95E1F786EAB0
:101CB00093E00E941035CE01865A9F4F0E94103546
:101CC0000E943B351CC1E22FEF711F92EF9345EB51
:101CD00053E05F934F93E1E0F0E0EC0FFD1FFF93C3
:101CE000EF930E941F3ACE0101960E9410350E9488
:101CF0003B350F900F900F900F900F900F90FFC0FB
:101D0000822F807790E09595879595958795959505
:101D1000879595958795FC01E75AFF4F0C948C3970
:101D200088E0E1E1F4E0DE01A658BF4F01900D929A
:101D30008A95E1F74CC087E0E5E6F3E0DE01A658BE
:101D4000BF4F01900D928A95E1F741C087E0E4EC26
:101D5000F3E0DE01A658BF4F01900D928A95E1F79E
:101D600036C089E0EBECF3E0DE01A658BF4F0190EE
:101D70000D928A95E1F72BC08AE0E4EDF3E0DE01F5
:101D8000A658BF4F01900D928A95E1F720C08AE0D6
:101D9000EEEDF3E0DE01A658BF4F01900D928A955B
:101DA000E1F715C08BE0E8EEF3E0DE01A658BF4F87
:101DB00001900D928A95E1F70AC087E0E3EFF3E026
:101DC000DE01A658BF4F01900D928A95E1F7609110
:101DD000DA0AA62EB12C8DB69EB6C50107964DB770
:101DE0005EB7481B590B0FB6F8945EBF0FBE4DBFD0
:101DF0008DB79EB701966C01E22FEF70EE2EF12C9D
:101E000070E080E090E00E94BD369B01AC0160E094
:101E100070E080E291E40E94AE37CA57DF4F6883DA
:101E200079838A839B83C658D040F701EE0FFF1F4A
:101E3000EB52F54F61A572A580E090E00E94BD369F
:101E4000CA57DF4F288139814A815B81C658D0400B
:101E50000E945536CA57DF4F688379838A839B83F4
:101E6000C658D0406091D80A7091D90A80E090E0BD
:101E70000E94BD369B01AC01CA57DF4F6881798152
:101E80008A819B81C658D0400E944B370C2D1D2D56
:101E9000950140E050E00E94A139CD57DF4F988175
:101EA000C358D0409F93CE57DF4FE881C258D040EF
:101EB000EF93DF92CF92FFEFEF1AFF0AFF92EF92BC
:101EC0002AEF33E03F932F93CB57DF4F5881C5580C
:101ED000D0405F93CC57DF4F8881C458D0408F9358
:101EE0000E941F3ACE018F5B9F4F0E9410350E94C7
:101EF0003B35B1DC0FB6F8949EBE0FBE8DBE9FEF92
:101F0000291A390AE2E04E0E511C2614370408F44F
:101F10007CCDC657DF4F28813981CA58D0400FB6D3
:101F2000F8943EBF0FBE2DBF0BC0C657DF4F488190
:101F30005981CA58D0400FB6F8945EBF0FBE4DBF4E
:101F4000C457DF4F88819981CC58D0400FB6F894A0
:101F50009EBF0FBE8DBFC357DF4F0FB6F894DEBFD5
:101F60000FBECDBFDF91CF911F910F91FF90EF90EA
:101F7000DF90CF90BF90AF909F908F907F906F90A9
:101F80005F904F903F902F9008952F923F924F92E5
:101F90005F927F928F929F92AF92BF92CF92DF9289
:101FA000EF92FF920F931F93CF93DF93CDB7DEB7DE
:101FB000A8970FB6F894DEBF0FBECDBFF82EE62E61
:101FC000D42EC22E702E8DB69EB621E0621310C0A4
:101FD00081E090E02FEF2F0D02C0880F991F2A9506
:101FE000E2F72091690B30916A0B822B932B11C081
:101FF00081E090E02FEF2F0D02C0880F991F2A95E6
:10200000E2F7809590952091690B30916A0B8223BD
:10201000932390936A0B8093690B31E0D31210C025
:1020200081E090E02FEF2F0D02C0880F991F2A95B5
:10203000E2F720916B0B30916C0B822B932B11C02C
:1020400081E090E02FEF2F0D02C0880F991F2A9595
:10205000E2F78095909520916B0B30916C0B822369
:10206000932390936C0B80936B0B81E0C81210C08C
:1020700081E090E02FEF2F0D02C0880F991F2A9565
:10208000E2F720916D0B30916E0B822B932B11C0D8
:1020900081E090E02FEF2F0D02C0880F991F2A9545
:1020A000E2F78095909520916D0B30916E0B822315
:1020B000932390936E0B80936D0B91E0791210C077
:1020C00081E090E02FEF2F0D02C0880F991F2A9515
:1020D000E2F720916F0B3091700B822B932B11C084
:1020E00081E090E02FEF2F0D02C0880F991F2A95F5
:1020F000E2F78095909520916F0B3091700B8223C1
:1021000093239093700B80936F0B0E94803405EDA6
:102110001AE0F8016581A62EB12CC50107962DB7EE
:102120003EB7281B390B0FB6F8943EBF0FBE2DBF2C
:102130008DB79EB701962C012F2C312C70E080E0DA
:1021400090E00E94BD369B01AC0160E070E080E24F
:1021500091E40E94AE376DA37EA38FA398A7F101EF
:10216000EE0FFF1FED52F54F61A572A580E090E0E4
:102170000E94BD362DA13EA14FA158A50E94553603
:102180006DA37EA38FA398A7F8016381748180E07B
:1021900090E00E94BD369B01AC016DA17EA18FA194
:1021A00098A50E944B37042D152D950140E050E075
:1021B0000E94A13981E090E0781280E09F938F9394
:1021C00081E090E0C81280E09F938F9381E090E0DF
:1021D000D81280E09F938F9381E090E0E81280E036
:1021E0009F938F935F924F921F92FF9289E194E0A9
:1021F0009F938F938E010F5F1F4F1F930F930E942A
:102200001F3AC8010E9410350E944E352DB73EB7C7
:10221000205F3F4F0FB6F8943EBF0FBE2DBF0FB6E5
:10222000F8949EBE0FBE8DBEA8960FB6F894DEBF82
:102230000FBECDBFDF91CF911F910F91FF90EF9017
:10224000DF90CF90BF90AF909F908F907F905F90E6
:102250004F903F902F900895CF93DF9300D000D000
:1022600000D0CDB7DEB784E38983E9E6FBE03081B7
:1022700021812A833B83828193819C838D83830F79
:102280008C5C820F980F9E8366E0CE0101960E94BF
:1022900013368091AF0A811106C00E94E335809108
:1022A000AF0A8823D1F387E394E00E941035809130
:1022B000AF0A8823E1F08091B40B811118C08AE045
:1022C0008093A80A8091930B813089F480911E0B32
:1022D00081110DC00E944E358091710B882381F0D1
:1022E0008091B80A882361F00E94970309C00E9478
:1022F00056358091A80A882319F081508093A80A46
:1023000026960FB6F894DEBF0FBECDBFDF91CF91FA
:102310000895CF93DF9300D000D000D0CDB7DEB7C3
:1023200084E389831A821B821C821D828E8366E06D
:10233000CE0101960E9413368091AF0A811106C02A
:102340000E94E3358091AF0A8823D1F382E494E0C0
:102350000E9410358091AF0A8823E1F08091B40B80
:10236000811118C08AE08093A80A8091930B813074
:1023700089F480911E0B81110DC00E944E35809111
:10238000710B882381F08091B80A882361F00E9444
:10239000180409C00E9456358091A80A882319F0B4
:1023A00081508093A80A26960FB6F894DEBF0FBE20
:1023B000CDBFDF91CF91089591E0813009F090E099
:1023C0009093710B0C94803408952F923F924F920A
:1023D0005F926F927F928F929F92AF92BF92CF92B5
:1023E000DF92FF920F931F93CF93DF93CDB7DEB7AA
:1023F000CE55D1090FB6F894DEBF0FBECDBF6DB676
:102400007EB689E089838A8362E0CE0101960E94CC
:1024100013368091AF0A811106C00E94E335809186
:10242000AF0A8823D1F38091AF0A882309F47EC1D3
:102430008091B40B81117AC18091930B823008F4A2
:1024400082C10E94483685E08093D70B0F2EF8EDAD
:10245000CF2EFBE0DF2EF02D0EE11BE0F801808196
:10246000F6018083F801828164968FAF649784813E
:1024700065968FAF6597CE018D5A9F4F0E9493311D
:10248000F60192838183F801F680F601F382F80168
:102490006085F6016483F801A285B0E0BA2FAA270F
:1024A0008485A82B0F2EFDED2F2EFBE03F2EF02D67
:1024B000F10180E090E001E010E051E070E098016F
:1024C000082E02C0220F331F0A94E2F72A233B236F
:1024D000452F232B09F4472F419301968031910515
:1024E00071F78091930B90E00197089794F0ECE2DC
:1024F000FBE0ADEEBBE027E030E080818D932F5F05
:102500003F4F8091930B329690E00197281739073F
:10251000A4F3A62EB12C2DB73EB76F963FAF2EAFCA
:102520006F97C5010596EDB7FEB7E81BF90B0FB61F
:10253000F894FEBF0FBEEDBF2DB73EB72F5F3F4FE4
:10254000690170E080E090E00E94BD369B01AC0123
:1025500060E070E080E291E40E94AE3769966CAF73
:102560007DAF8EAF9FAF69976F2D70E080E090E0F8
:102570000E94BF3669962CAD3DAD4EAD5FAD6997FB
:102580000E9455360C2D1D2D950140E050E00E9413
:10259000A139DF92CF92E8EDFBE082818F938181B8
:1025A0008F9380811F928F938EE494E09F938F93FB
:1025B0008E010D5F1F4F1F930F930E941F3AC8019A
:1025C0000E9410358DB79EB70A960FB6F8949EBF3D
:1025D0000FBE8DBF412C512CF42CF10181911F01B4
:1025E000FFEF4F1A5F0A813009F091C08DB69EB699
:1025F0006091DC0BA62EB12CC5010A962DB73EB713
:10260000281B390B0FB6F8943EBF0FBE2DBF8DB7F8
:102610009EB7019667969FAF8EAF6797C5014C96A0
:10262000EDB7FEB7E81BF90B0FB6F894FEBF0FBE6F
:10263000EDBF2DB73EB72F5F3F4F690170E080E0DF
:1026400090E00E94BD369B01AC0160E070E080E24A
:1026500091E40E94AE376D966CAF7DAF8EAF9FAFA9
:102660006D978091DB0BF1016785869FB001112486
:10267000072E000C880B990B0E94BF366D962CAD6F
:102680003DAD4EAD5FAD6D970E94553666960FAD70
:10269000669767961FAD6797950140E050E00E94EE
:1026A000A1398091B30A9091B40A0F2C02C096957B
:1026B00087950A94E2F7817099279F938F93E1EBB6
:1026C000FAE08081918102C096958795FA94E2F7AD
:1026D000817099279F938F936796FFAD6797FF93BC
:1026E00066962FAD66972F935F924F9280E694E0A7
:1026F0009F938F93DF92CF920E941F3A8C2D9D2D36
:102700000E9410350FB6F8949EBE0FBE8DBEF0E14C
:102710004F16510409F060CF6F962EAD3FAD6F9705
:102720000FB6F8943EBF0FBE2DBF0DC089E794E0F1
:102730000E9410350E943B358091D70B882319F0F9
:1027400081508093D70B0FB6F8947EBE0FBE6DBE3E
:10275000C25ADF4F0FB6F894DEBF0FBECDBFDF9178
:10276000CF911F910F91FF90DF90CF90BF90AF90CE
:102770009F908F907F906F905F904F903F902F90A1
:1027800008952F923F924F925F926F927F928F9215
:102790009F92AF92BF92CF92DF92EF92FF920F93F0
:1027A0001F93CF93DF93CDB7DEB7AE970FB6F894F4
:1027B000DEBF0FBECDBF2DB73EB73EA72DA78AE027
:1027C00089838A8362E0CE0101960E94133680914C
:1027D000AF0A811106C00E94E3358091AF0A8823B9
:1027E000D1F38091AF0A882309F4EAC08091B40B39
:1027F0008111E6C08091930B823008F4EEC00E94F4
:10280000483685E08093D70BEEE1FBE0808190E0D5
:10281000982F882722817C01E22A8091930B90E0F7
:10282000019703970CF4D9C00F2EF2E2CF2EFBE0F4
:10283000DF2EF02D0F2EFDEE6F2EFBE07F2EF02D04
:10284000212C312C44244394512CCE0103969CA37B
:102850008BA3D8A6CFA2F6018081811112C0C2013C
:102860009201022C02C0220F331F0A94E2F721309A
:10287000310511F080E090E08E219F21892B09F431
:102880008AC08DB69EB66091DC0BA62EB12CC50118
:1028900005962DB73EB7281B390B0FB6F8943EBFEF
:1028A0000FBE2DBF8DB79EB701969EA38DA370E07E
:1028B00080E090E00E94BD369B01AC0160E070E0DA
:1028C00080E291E40E94AE3769A77AA78BA79CA704
:1028D0008091DB0BF3016081869FB0011124072EEC
:1028E000000C880B990B0E94BF3629A53AA54BA571
:1028F0005CA50E9455360DA11EA1950140E050E057
:102900000E94A1395201022C02C0AA0CBB1C0A94DD
:10291000E2F7C5018E219F219F938F93EFA1F8A528
:1029200080811F928F93FEA1FF932DA12F93C10150
:1029300001969F938F9383E894E09F938F93FCA1DC
:10294000FF932BA12F930E941F3A8DB79EB70C9631
:102950000FB6F8949EBF0FBE8DBFEFA1F8A5808182
:1029600081110EC0C201AA94AB2811F080E090E062
:102970008E219F21892B21F08BE491E00E9410355C
:10298000CE0103960E9410350E943B350FB6F89495
:102990009EBE0FBE8DBE91012D5F3F4F8091930B68
:1029A0009FEF291A390AE2E0CE0ED11CFFEF6F1A11
:1029B0007F0A90E00197281739070CF44ACF0DC021
:1029C00087E994E00E9410350E943B358091D70B37
:1029D000882319F081508093D70B2DA53EA50FB603
:1029E000F8943EBF0FBE2DBFAE960FB6F894DEBF73
:1029F0000FBECDBFDF91CF911F910F91FF90EF9050
:102A0000DF90CF90BF90AF909F908F907F906F900E
:102A10005F904F903F902F9008952F923F924F924A
:102A20005F926F927F928F929F92BF92CF92DF922E
:102A3000EF92FF920F931F93CF93DF9300D000D0BC
:102A4000CDB7DEB7D82EC62EB42E6DB67EB6809129
:102A5000DC0B90E04B962DB73EB7281B390B0FB619
:102A6000F8943EBF0FBE2DBF8DB79EB701967C0177
:102A700091E0691310C081E090E02FEF2D0D02C0AE
:102A8000880F991F2A95E2F72091B10A3091B20A76
:102A9000822B932B11C081E090E02FEF2D0D02C00F
:102AA000880F991F2A95E2F7809590952091B10A99
:102AB0003091B20A822393239093B20A8093B10A91
:102AC000E1E0BE1210C081E090E02FEF2D0D02C0BA
:102AD000880F991F2A95E2F72091B30A3091B40A22
:102AE000822B932B11C081E090E02FEF2D0D02C0BF
:102AF000880F991F2A95E2F7809590952091B30A47
:102B00003091B40A822393239093B40A8093B30A3A
:102B10000E943A3408ED1BE0F8016481862E912C66
:102B2000C40105962DB73EB7281B390B0FB6F89494
:102B30003EBF0FBE2DBF8DB79EB701962C012D2C29
:102B4000312C70E080E090E00E94BD369B01AC012A
:102B500060E070E080E291E40E94AE3769837A839E
:102B60008B839C83F101E852F44F8489F8016381DF
:102B7000869FB0011124072E000C880B990B0E9430
:102B8000BF3629813A814B815C810E945536042DE4
:102B9000152D940140E050E00E94A13981E090E0C1
:102BA000B81280E09F938F9381E090E0C81280E09C
:102BB0009F938F935F924F921F92DF9281EA94E0EE
:102BC0009F938F93FF92EF920E941F3A8E2D9F2D1D
:102BD0000E9410350E944E352DB73EB7245F3F4FFF
:102BE0000FB6F8943EBF0FBE2DBF0FB6F8947EBE51
:102BF0000FBE6DBE0F900F900F900F90DF91CF9191
:102C00001F910F91FF90EF90DF90CF90BF909F901A
:102C10008F907F906F905F904F903F902F9008958E
:102C2000CF93DF9300D000D000D0CDB7DEB78CE0DB
:102C30008983E1EBFAE0308121812A833B83828121
:102C400093819C838D83830F845F820F980F9E8373
:102C500066E0CE0101960E9413368091AF0A811181
:102C600006C00E94E3358091AF0A8823D1F389EB37
:102C700094E00E9410358091AF0A882391F08091F2
:102C8000B40B81110EC08091930B813051F480916F
:102C90001E0B811106C00E944E3585E08093D70B34
:102CA00009C00E9456358091D70B882319F08150B6
:102CB0008093D70B26960FB6F894DEBF0FBECDBF1C
:102CC000DF91CF910895CF93DF9300D000D000D053
:102CD000CDB7DEB78CE089831A821B821C821D82ED
:102CE0008E8366E0CE0101960E9413368091AF0A72
:102CF000811106C00E94E3358091AF0A8823D1F389
:102D000084EC94E00E9410358091AF0A882391F002
:102D10008091B40B81110EC08091930B813051F4DE
:102D200080911E0B811106C00E944E3585E0809374
:102D3000D70B09C00E9456358091D70B882319F014
:102D400081508093D70B26960FB6F894DEBF0FBE46
:102D5000CDBFDF91CF910895CF93DF9300D01F9225
:102D6000CDB7DEB79DE099838A83835F8B8363E071
:102D7000CE0101960E9413368091AF0A811106C0E0
:102D80000E94E3358091AF0A8823D1F38091AF0A86
:102D9000882311F18091B40B81111EC085E08093CE
:102DA000D70B80ED94E00E94103580911E0B882394
:102DB00019F08F3F39F009C082E08093D60B0E9452
:102DC0004E3517C00E94523514C08FED95E00E9419
:102DD00010350E943B350DC08DED94E00E941035FA
:102DE0000E943B358091D70B882319F08150809346
:102DF000D70B0F900F900F90DF91CF910895CF9345
:102E0000DF9300D000D0CDB7DEB79FE0998392E08A
:102E10009A838B838F5E8C8364E0CE0101960E943F
:102E200013368091AF0A811106C00E94E33580916C
:102E3000AF0A8823D1F38EEE94E00E941035809182
:102E4000AF0A8823A9F08091B40B811111C085E0ED
:102E50008093D70B8091930B813051F480911E0B9E
:102E6000811106C083E08093D60B0E944E3509C0C5
:102E70000E9456358091D70B882319F0815080939A
:102E8000D70B0F900F900F900F90DF91CF91089577
:102E90002F923F924F925F926F927F928F929F926A
:102EA000AF92BF92CF92DF92EF92FF920F931F9358
:102EB000CF93DF93CDB7DEB72B970FB6F894DEBF75
:102EC0000FBECDBF2DB73EB73B872A878FE08983E2
:102ED00083E08A8382E18B8363E0CE0101960E94C6
:102EE00013368091AF0A811106C00E94E3358091AC
:102EF000AF0A8823D1F38091AF0A882309F4C5C0B3
:102F00008091B40B8111C1C080911F0B8111B6C09B
:102F10000E94483685E08093D70B8091930B90E018
:102F20000197181619060CF0A7C00F2EFEE1EF2E20
:102F3000FBE0FF2EF02D0F2EFDEE8F2EFBE09F2EDF
:102F4000F02DC12CD12C0F2EF8ED6F2EFBE07F2E33
:102F5000F02DF7018081882309F47DC04DB65EB65F
:102F6000F301848190E00A962DB73EB7281B390BF8
:102F70000FB6F8943EBF0FBE2DBF8DB79EB701961A
:102F80009D838C838CEF94E00E941035F301648163
:102F9000262E312CC10105962DB73EB7281B390BC3
:102FA0000FB6F8943EBF0FBE2DBF8DB79EB70196EA
:102FB0005C0170E080E090E00E94BD369B01AC01B6
:102FC00060E070E080E291E40E94AE376E837F8320
:102FD00088879987F3018381F4016081869FB0011E
:102FE0001124072E000C880B990B0E94BF362E81EE
:102FF0003F81488559850E9455360A2D1B2D910128
:1030000040E050E00E94A139BF92AF9227ED38E036
:103010003F932F939D819F93EC81EF930E941F3AE2
:103020008C819D810E941035F70180811F928F93C2
:103030002BE337E03F932F93BF92AF920E941F3A4A
:103040008A2D9B2D0E9410350E943B350FB6F894B7
:103050005EBE0FBE4DBE9FEFC91AD90A8091930B79
:10306000E2E0EE0EF11CFFEF8F1A9F0A90E001974D
:10307000C816D9060CF46DCF84DB14C089E095E046
:103080000E9410350E943B350DC08BE195E00E94F7
:1030900010350E943B358091D70B882319F0815061
:1030A0008093D70B2A853B850FB6F8943EBF0FBEA1
:1030B0002DBF2B960FB6F894DEBF0FBECDBFDF91AC
:1030C000CF911F910F91FF90EF90DF90CF90BF9025
:1030D000AF909F908F907F906F905F904F903F90B8
:1030E0002F9008954F925F926F927F928F929F924E
:1030F000AF92BF92CF92DF92EF92FF920F931F9306
:10310000CF93DF9300D01F92CDB7DEB7EDB6FEB6FA
:103110008FE0898384E08A8383E18B8363E0CE013F
:1031200001960E9413368091AF0A811106C00E9459
:10313000E3358091AF0A8823D1F38091AF0A8823C9
:1031400009F464C08091B40B811160C080911F0BA1
:10315000811151C08DB69EB60E94483685E080939D
:10316000D70B08ED1BE0F8016481A62EB12CC50138
:1031700005962DB73EB7281B390B0FB6F8943EBF06
:103180000FBE2DBF8DB79EB701966C0170E080E039
:1031900090E00E94BD369B01AC0160E070E080E2EF
:1031A00091E40E94AE372B013C01F80183816091CC
:1031B0001E0B869FB0011124072E000C880B990B63
:1031C0000E94BF36A30192010E94553686019501E7
:1031D00040E050E00E94A1398DE295E00E94103558
:1031E000C6010E9410350E943B350FB6F8949EBE72
:1031F0000FBE8DBE18C086E395E00E9410350E9478
:103200003B3581E08093D60B43DE0DC083E495E02F
:103210000E9410350E943B358091D70B882319F00E
:1032200081508093D70B0FB6F894FEBE0FBEEDBE53
:103230000F900F900F90DF91CF911F910F91FF9002
:10324000EF90DF90CF90BF90AF909F908F907F9046
:103250006F905F904F900895CF93DF93CDB7DEB717
:1032600027970FB6F894DEBF0FBECDBF84E595E07B
:103270000E9410358FE0898381E08A831B821C8243
:103280001D828091B50A8E83805F8F8367E0CE01B7
:1032900001960E9413368091AF0A811106C00E94E8
:1032A000E3358091AF0A8823D1F38091AF0A882358
:1032B00091F08091B40B81110EC085E08093D70B03
:1032C0008091930B813039F480911E0B811103C0E2
:1032D0000E944E3509C00E9456358091D70B882335
:1032E00019F081508093D70B27960FB6F894DEBF64
:1032F0000FBECDBFDF91CF910895813021F4809131
:10330000B50A816003C08091B50A8E7F613011F4E7
:10331000826001C08D7F413011F4846001C08B7FD9
:103320008093B50A0E943A3483E695E00E941035F6
:103330000E944E3591CF08958F929F92AF92BF9287
:10334000CF92DF92EF92FF920F931F93CF93DF9371
:10335000CDB7DEB7C554D1090FB6F894DEBF0FBEA6
:10336000CDBF8FE089831A828B8363E0CE01019603
:103370000E9413368091AF0A811106C00E94E33586
:103380008091AF0A8823D1F38091AF0A882309F492
:10339000F4C08091B40B8111F0C08091930B823006
:1033A00008F4F2C00E94483685E08093D70BAEEB5C
:1033B000BBE0EAECFBE01D92EA17FB07E1F786EDC4
:1033C0009BE011928E179F07E1F70F2EFEE1EF2E83
:1033D000FBE0FF2EF02DD70112969C9112971496C8
:1033E0008C91149705EB1BE02C91F80126839783B1
:1033F00080878FE695E00E9410358BEB9BE00E9462
:103400001035F701A085D284C484768560895289FD
:1034100044893689208D928D848DB681F801B187DB
:10342000A287D386C486758766875787408B318B82
:10343000228B938B848B86EA92E00E9410358EEB70
:103440009BE00E941035F701A0A1D2A0C4A076A1F4
:1034500060A552A544A536A520A992A984A9B68D38
:10346000F801B58BA68BD78AC08E718F628F538F70
:10347000448F358F268F978F80A386EA92E00E9433
:1034800010358AEC9BE00E941035D701D6968C91BE
:10349000D69725968FAF2597D8968C9126968FAF85
:1034A0002697CE018C5B9F4F0E949331F801808359
:1034B0009183D701DA964C91DA9750E060E070E0A2
:1034C000762F652F542F4427DC962C91DC97422BC6
:1034D000762F652F542F4427DE962C91422B762F82
:1034E000652F542F442720915E0B422B242F2170EF
:1034F00022836A017B01F694E794D794C7943C2D0C
:10350000317033834A015B01B694A79497948794F2
:10351000B694A79497948794E82DE170D8011496F7
:10352000EC931497689412F876956795579547959C
:103530001694D1F7417015964C931F924F931F929A
:10354000EF931F923F931F922F939F938F9386E742
:1035500095E09F938F938E010C5F1F4F1F930F93E6
:103560000E941F3AC8010E9410350E943B350FB6D9
:10357000F894DEBF0FBECDBF07C08091D70B882364
:1035800019F081508093D70BCB5BDF4F0FB6F894C7
:10359000DEBF0FBECDBFDF91CF911F910F91FF9086
:1035A000EF90DF90CF90BF90AF909F908F90089555
:1035B0002F923F924F925F926F927F928F929F9243
:1035C000AF92BF92CF92DF92EF92FF920F931F9331
:1035D000CF93DF93CDB7DEB72B970FB6F894DEBF4E
:1035E0000FBECDBF2DB73EB73B872A878FE08983BB
:1035F00087E08A8386E18B8363E0CE0101960E9497
:1036000013368091AF0A811106C00E94E335809184
:10361000AF0A8823D1F38091AF0A882309F4C5C08B
:103620008091B40B8111C1C08091930B823008F45A
:10363000B5C00E94483685E08093D70B8091930BEC
:1036400090E00197181619060CF0BCC00F2EFEE191
:10365000EF2EFBE0FF2EF02D0F2EFDEE8F2EFBE068
:103660009F2EF02DC12CD12C0F2EF8ED6F2EFBE0EC
:103670007F2EF02DF7018081882309F47DC04DB69F
:103680005EB6F301848190E00A962DB73EB7281B01
:10369000390B0FB6F8943EBF0FBE2DBF8DB79EB746
:1036A00001969D838C8386E895E00E941035F30196
:1036B0006481262E312CC10105962DB73EB7281BFB
:1036C000390B0FB6F8943EBF0FBE2DBF8DB79EB716
:1036D00001965C0170E080E090E00E94BD369B01A5
:1036E000AC0160E070E080E291E40E94AE376E834E
:1036F0007F8388879987F3018381F4016081869FA6
:10370000B0011124072E000C880B990B0E94BF36C4
:103710002E813F81488559850E9455360A2D1B2DE3
:10372000910140E050E00E94A139BF92AF9227ED95
:1037300038E03F932F939D819F93EC81EF930E94FC
:103740001F3A8C819D810E941035F70180811F9264
:103750008F932BE337E03F932F93BF92AF920E945A
:103760001F3A8A2D9B2D0E9410350E943B350FB6C3
:10377000F8945EBE0FBE4DBE9FEFC91AD90A809164
:10378000930BE2E0EE0EF11CFFEF8F1A9F0A90E020
:103790000197C816D9060CF46DCF14C086E995E0E0
:1037A0000E9410350E943B350DC08EEA95E00E94C4
:1037B00010350E943B358091D70B882319F081503A
:1037C0008093D70B2A853B850FB6F8943EBF0FBE7A
:1037D0002DBF2B960FB6F894DEBF0FBECDBFDF9185
:1037E000CF911F910F91FF90EF90DF90CF90BF90FE
:1037F000AF909F908F907F906F905F904F903F9091
:103800002F9008952F923F924F925F926F927F92E6
:103810008F929F92AF92BF92CF92DF92EF92FF92E0
:103820000F931F93CF93DF93CDB7DEB72B970FB6D0
:10383000F894DEBF0FBECDBF2DB73EB73B872A87BA
:103840008FE0898386E08A8385E18B8363E0CE0104
:1038500001960E9413368091AF0A811106C00E9422
:10386000E3358091AF0A8823D1F38091AF0A882392
:1038700009F4C5C08091B40B8111C1C08091930B34
:10388000823008F4B5C00E94483685E08093D70B9B
:103890008091930B90E00197181619060CF0BCC0AC
:1038A0000F2EFEE1EF2EFBE0FF2EF02D0F2EFDEE92
:1038B0008F2EFBE09F2EF02DC12CD12C0F2EF8ED7A
:1038C0006F2EFBE07F2EF02DF7018081882309F415
:1038D0007DC04DB65EB6F301848190E00A962DB7A7
:1038E0003EB7281B390B0FB6F8943EBF0FBE2DBF55
:1038F0008DB79EB701969D838C8383EC95E00E94E3
:103900001035F3016481262E312CC10105962DB7A7
:103910003EB7281B390B0FB6F8943EBF0FBE2DBF24
:103920008DB79EB701965C0170E080E090E00E9448
:10393000BD369B01AC0160E070E080E291E40E9442
:10394000AE376E837F8388879987F3018381F40183
:103950006081869FB0011124072E000C880B990B03
:103960000E94BF362E813F81488559850E94553679
:103970000A2D1B2D910140E050E00E94A139BF9219
:10398000AF9227ED38E03F932F939D819F93EC8179
:10399000EF930E941F3A8C819D810E941035F701A0
:1039A00080811F928F932BE337E03F932F93BF9239
:1039B000AF920E941F3A8A2D9B2D0E9410350E94C3
:1039C0003B350FB6F8945EBE0FBE4DBE9FEFC91AD1
:1039D000D90A8091930BE2E0EE0EF11CFFEF8F1AF3
:1039E0009F0A90E00197C816D9060CF46DCF14C059
:1039F00081ED95E00E9410350E943B350DC087EEA9
:103A000095E00E9410350E943B358091D70B8823AA
:103A100019F081508093D70BCBDD2A853B850FB6FB
:103A2000F8943EBF0FBE2DBF2B960FB6F894DEBFA5
:103A30000FBECDBFDF91CF911F910F91FF90EF90FF
:103A4000DF90CF90BF90AF909F908F907F906F90BE
:103A50005F904F903F902F9008952F923F924F92FA
:103A60005F926F927F928F929F92AF92BF92CF920E
:103A7000DF92EF92FF920F931F93CF93DF93CDB717
:103A8000DEB767970FB6F894DEBF0FBECDBF8DB619
:103A90009EB68FE0898385E08A8384E18B8363E02F
:103AA000CE0101960E9413368091AF0A811106C0A3
:103AB0000E94E3358091AF0A8823D1F38091AF0A49
:103AC000882309F438C28091B40B811134C28091EB
:103AD000930B833008F428C28091930B815080FDB2
:103AE00023C22DB73EB73F8B2E8B0E94483685E010
:103AF0008093D70B6090930B712CC301880F991F93
:103B0000EDB7FEB7E81BF90B0FB6F894FEBF0FBE7A
:103B1000EDBF0DB71EB70F5F1F4F4091930B50E0E5
:103B2000440F551F6EE17BE0C8010E94E039F1E0CF
:103B30006F1A710809F4F0C16801A12CB12C0F2E85
:103B4000F2EA4F2EF3E05F2EF02D7E0124E0E20E2C
:103B5000F11CF60130803C8A22802D8ACE014496E9
:103B60000E9493318C011F922F921F923F925F927D
:103B70004F922AEF35E03F932F93FF92EF920E94EE
:103B80001F3AEDB7FEB73A960FB6F894FEBF0FBED8
:103B9000EDBF0E3FF1E01F0709F448C08091840A91
:103BA000882319F01092840A2DDE003921E01207D3
:103BB000A1F164F4083C110501F10C3281E0180711
:103BC00029F10436110509F052C00EC0083092E008
:103BD0001907E1F10835E2E01E0709F440C00E3F85
:103BE000114009F044C022C088E0E6E0F6E0D701C9
:103BF00001900D928A95E1F73AC08AE0EEE0F6E096
:103C0000D70101900D928A95E1F731C02FE43BE492
:103C1000F7013183208312822AC08EE0E8E1F6E0CA
:103C2000D70101900D928A95E1F721C08EE0E6E27E
:103C3000F6E0D70101900D928A95E1F78091840A10
:103C40008130A9F031E03093840A11C08DE0E4E3C3
:103C5000F6E0D70101900D928A95E1F708C08AE05D
:103C6000E1E4F6E0D70101900D928A95E1F782E157
:103C7000381609F4AAC0831538F090E1391681F09E
:103C8000E1E13E16E9F135C1F4E13F1609F4F4C073
:103C90003F1608F4D9C025E1321609F4F8C029C14D
:103CA00031E0231691F0231638F082E02816B1F0A7
:103CB00093E02916E1F01DC186E0EBE2F3E0D701C5
:103CC00001900D928A95E1F714C187E0EBE4F6E0EC
:103CD000D70101900D928A95E1F70BC187E0E2E5EB
:103CE000F6E0D70101900D928A95E1F702C18BE0D1
:103CF000E9E5F6E0D70101900D928A95E1F7F9C068
:103D0000822D90E08535910508F0F3C0FC01EF5954
:103D1000FF4F0C948C3988E0E4E6F6E0D70101907F
:103D20000D928A95E1F7E5C089E0ECE6F6E0D7016F
:103D300001900D928A95E1F7DCC088E0E5E7F6E0B6
:103D4000D70101900D928A95E1F7D3C088E0EDE7A5
:103D5000F6E0D70101900D928A95E1F7CAC08AE09A
:103D6000E5E8F6E0D70101900D928A95E1F7C1C030
:103D70008AE0EFE8F6E0D70101900D928A95E1F72D
:103D8000B8C08AE0E9E9F6E0D70101900D928A9582
:103D9000E1F7AFC08AE0E3EAF6E0D70101900D92C7
:103DA0008A95E1F7A6C088E0EDEAF6E0D701019038
:103DB0000D928A95E1F79DC088E0E5EBF6E0D7012A
:103DC00001900D928A95E1F794C0E1E32E1609F176
:103DD000E21530F0222059F0F0E32F1689F089C067
:103DE00020E42216F9F030E5231629F182C087E09D
:103DF000EDEBF6E0D70101900D928A95E1F779C0DD
:103E000086E0E4ECF6E0D70101900D928A95E1F7A7
:103E100070C087E0EAECF6E0D70101900D928A9538
:103E2000E1F767C086E0E1EDF6E0D70101900D9281
:103E30008A95E1F75EC088E0E7EDF6E0D7010190F2
:103E40000D928A95E1F755C0222021F080E12816D5
:103E500051F04FC087E0EFEDF6E0D70101900D92F1
:103E60008A95E1F746C088E0E6EEF6E0D7010190DA
:103E70000D928A95E1F73DC021103BC088E0EEEE3F
:103E8000F6E0D70101900D928A95E1F732C092E0F9
:103E90002916A9F0921518F0222041F02AC0E3E07B
:103EA0002E16B1F0F4E02F16E1F023C087E0E6EF24
:103EB000F6E0D70101900D928A95E1F71AC087E0EC
:103EC000EDEFF6E0D70101900D928A95E1F711C070
:103ED00088E0E4E0F7E0D70101900D928A95E1F7E0
:103EE00008C087E0ECE0F7E0D70101900D928A95D9
:103EF000E1F783E197E00E941035C7010E94103579
:103F00000E943B3522E0A20EB11C34E0C30ED11C4E
:103F1000A614B70408F41DCE8E899F890FB6F894B5
:103F20009EBF0FBE8DBF14C08CE197E00E9410357C
:103F30000E943B350DC089E297E00E9410350E9437
:103F40003B358091D70B882319F081508093D70B94
:103F50000FB6F8949EBE0FBE8DBE67960FB6F8944E
:103F6000DEBF0FBECDBFDF91CF911F910F91FF90AC
:103F7000EF90DF90CF90BF90AF909F908F907F9009
:103F80006F905F904F903F902F9008952F923F92A7
:103F90004F925F926F927F928F929F92AF92BF9259
:103FA000CF92DF92EF92FF920F931F93CF93DF9305
:103FB000CDB7DEB7C256D1090FB6F894DEBF0FBE3B
:103FC000CDBF2DB73EB7A3963FAF2EAFA397A19617
:103FD0003FAF2EAFA19785E08093D70BE090930B76
:103FE000F12CC701880F991FEDB7FEB7E81BF90B3D
:103FF0000FB6F894FEBF0FBEEDBF8DB79EB701960A
:104000005C014091930B50E0440F551F6EE17BE043
:104010000E94E0394701F1E08F1A910809F461C26A
:10402000412C512C9E012F5F3F4F19013E0131E47D
:10403000630E711C8201000F111F0A0D1B1DF80178
:10404000F0808F2D8295869587708130B9F41F920C
:104050008F2D8F718F9324E337E03F932F933F92FF
:104060002F920E941F3AC1010E9410350E943B35D9
:104070000F900F900F900F900F900F908F2D8295B3
:104080008F7009F0CBC0EF2DEF708E2F90E0FC0108
:104090003197ED30F10508F0ACC0EA54FF4F0C94B5
:1040A0008C398AE0EFE7F3E0D30101900D928A9515
:1040B000E1F79FC08BE0E9E8F3E0D30101900D92B6
:1040C0008A95E1F796C089E0EFE3F7E0D30101902C
:1040D0000D928A95E1F78DC08EE0E8E4F7E0D30118
:1040E00001900D928A95E1F784C08BE0E6E5F7E058
:1040F000D30101900D928A95E1F77BC08AE0E1E659
:10410000F7E0D30101900D928A95E1F772C088E043
:10411000EBE6F7E0D30101900D928A95E1F769C0D3
:1041200089E0E8E2F3E0D30101900D928A95E1F78E
:1041300060C08AE0E3E7F7E0D30101900D928A9531
:10414000E1F757C085E0E1E4F2E0D30101900D9280
:104150008A95E1F74EC0CE018F5B9F4F2AE0EBE3DB
:10416000F3E0DC0101900D922A95E1F7E6EDFBE02A
:1041700021E0208325E021839F938F938DE797E0B3
:104180009F938F938E010F5F1F4F1F930F930E947A
:104190001F3AC8010E9410350E94E5110F900F9040
:1041A0000F900F900F900F908091D80B823018F0E5
:1041B000C3D852D852DC26DB0E94C113A196EEADC3
:1041C000FFADA1970FB6F894FEBF0FBEEDBF92C131
:1041D00088E0ECE8F7E0D30101900D928A95E1F7D1
:1041E00008C088E0ECE6F3E0D30101900D928A95D7
:1041F000E1F77F926F9224E937E03F932F933F924C
:104200002F920E941F3AC1010E9410350E943B3537
:104210000F900F900F900F900F900F90FF200CF0C9
:1042200092C0EDB7FEB76B96FFAFEEAF6B97FFEFA7
:104230004F1A5F0AF801E2806091DC0B262F30E014
:1042400069963FAF2EAF6997C9010596EDB7FEB7E6
:10425000E81BF90B0FB6F894FEBF0FBEEDBF2DB7EC
:104260003EB72F5F3F4F67963FAF2EAF67978F2DBB
:104270008F70C82ED12C70E080E090E00E94BD3697
:104280009B01AC0160E070E080E291E40E94AE37F7
:104290006F966CAF7DAF8EAF9FAF6F978091DB0B4A
:1042A000F601E852F44F6589869FB0011124072E6C
:1042B000000C880B990B0E94BF366F962CAD3DAD5C
:1042C0004EAD5FAD6F970E94553666960FAD6697FF
:1042D00067961FAD679769962EAD3FAD699740E031
:1042E00050E00E94A1391F92EF928F2D807790E0CD
:1042F000929582958F7089279F7089279F938F93BE
:1043000067963FAD67973F9366968FAD66978F939D
:10431000C60101969F938F93E1EAF7E0FF93EF9335
:104320003F922F920E941F3AC1010E9410350E94B5
:104330003B356B968EAD9FAD6B970FB6F8949EBFD5
:104340000FBE8DBFC7C08F2D8295869586958370D1
:10435000813009F0BFC0EDB7FEB76B96FFAFEEAF8F
:104360006B97FFEF4F1A5F0AF801E2806091DC0B58
:10437000262F30E069963FAF2EAF6997C9010596A9
:10438000EDB7FEB7E81BF90B0FB6F894FEBF0FBEF2
:10439000EDBF2DB73EB72F5F3F4F67963FAF2EAFB4
:1043A00067978F2D8F70C82ED12C70E080E090E041
:1043B0000E94BD369B01AC0160E070E080E291E4B8
:1043C0000E94AE376F966CAF7DAF8EAF9FAF6F9789
:1043D0008091DB0BF601E852F44F6589869FB001AE
:1043E0001124072E000C880B990B0E94BF366F9684
:1043F0002CAD3DAD4EAD5FAD6F970E9455366696C4
:104400000FAD669767961FAD679769962EAD3FAD66
:10441000699740E050E00E94A1398F2D807390E0B1
:10442000929582958F7089279F7089278130910599
:1044300099F01CF4892B39F027C082309105A9F03E
:104440000397D1F021C088E0EBEBF7E0D3010190B6
:104450000D928A95E1F718C085E0E3ECF7E0D3010F
:1044600001900D928A95E1F70FC02EE431E4F3013B
:1044700031832083128208C087E0E7EDF3E0D301A7
:1044800001900D928A95E1F71F92EF927F926F92C1
:1044900067963FAD67973F9366968FAD66978F930C
:1044A000C60101969F938F93E8ECF7E0FF93EF939B
:1044B0003F922F920E941F3AC1010E9410350E9424
:1044C0003B356B968EAD9FAD6B970FB6F8949EBF44
:1044D0000FBE8DBF9FEF491A590A4814590408F4BA
:1044E000A9CDA196EEADFFADA1970FB6F894FEBF92
:1044F0000FBEEDBFA3962EAD3FADA3970FB6F894B8
:104500003EBF0FBE2DBFCE59DF4F0FB6F894DEBFB2
:104510000FBECDBFDF91CF911F910F91FF90EF9014
:10452000DF90CF90BF90AF909F908F907F906F90D3
:104530005F904F903F902F9008952F923F924F920F
:104540005F926F927F928F929F92AF92BF92CF9223
:10455000DF92EF92FF920F931F93CF93DF93CDB72C
:10456000DEB7C057D1090FB6F894DEBF0FBECDBF7E
:10457000E82E2DB73EB7AF963FAF2EAFAF97811164
:1045800004C081E7898B8A8B03C089E5898B8A8B7C
:1045900062E0CE0141960E9413368091AF0A8111EC
:1045A00006C00E94E3358091AF0A8823D1F3809141
:1045B000AF0A882309F4B3C18091B40B8111AFC154
:1045C0008091930B823008F4C8C10E944836F12CC8
:1045D000C7010E94633186E38E9D80018F9D100D7F
:1045E0001124C8018350944F4C010F2EFEE1AF2ED1
:1045F000FBE0BF2EF02DF5018081F4018083F501F1
:104600008281A4968FAFA4978481A5968FAFA5973A
:10461000CE018D599F4F0E949331F4019283818383
:10462000F501D680F401D382F5016085F40164833D
:10463000F5018285F4018583F501448550E0542F0E
:1046400044278685482B98012D5F334F3901F901A6
:1046500080E090E0A1E0B0E0CC24C394B12C9D01B7
:10466000082E02C0220F331F0A94E2F724233523B9
:104670007C2D232B09F47B2D7193019680319105BC
:1046800071F7EEE1FBE0408950E0542F4427828926
:10469000482BF801ED5EF34F80E090E0A1E0B0E040
:1046A000CC24C394B12C9D01082E02C0220F331FCD
:1046B0000A94E2F7242335237C2D232B09F47B2D48
:1046C000719301968031910571F78091930B90E081
:1046D00001970B979CF0E2E3FBE0D801AA5DB34F92
:1046E0002AE030E080818D932F5F3F4F8091930BC4
:1046F000329690E0019728173907A4F3862E912C63
:104700008DB79EB7E1969FAF8EAFE197C401059636
:10471000EDB7FEB7E81BF90B0FB6F894FEBF0FBE5E
:10472000EDBF2DB73EB72F5F3F4F590170E080E0DE
:1047300090E00E94BD369B01AC0160E070E080E239
:1047400091E40E94AE371B012C016D2D70E080E0DA
:1047500090E00E94BF36A20191010E9455360A2DB9
:104760001B2D940140E050E00E94A13927013FEF4A
:10477000431A530ABF92AF9286E38E9DF0018F9D3C
:10478000F00D1124E350F44F82818F9381818F9338
:1047900080811F928F935F924F928FED97E09F934E
:1047A0008F938E010D5E1F4F1F930F930E941F3A30
:1047B000C8010E9410350E943B358DB79EB70C96FC
:1047C0000FB6F8949EBF0FBE8DBF212C312C26E36F
:1047D0002E9DC0012F9D900D11248350944FFC01FC
:1047E0003496AB96FFAFEEAFAB979C012D5F3F4F7A
:1047F000AD963FAF2EAFAD97ADB6BEB6AB96EEADB4
:10480000FFADAB976081C62ED12CC6010A962DB79D
:104810003EB7281B390B0FB6F8943EBF0FBE2DBF15
:104820008DB79EB701964C01C6014C96EDB7FEB709
:10483000E81BF90B0FB6F894FEBF0FBEEDBF2DB706
:104840003EB72F5F3F4F790170E080E090E00E941B
:10485000BD369B01AC0160E070E080E291E40E9413
:10486000AE37A9966CAF7DAF8EAF9FAFA997AD96CF
:10487000EEADFFADAD978081F30160A1869FB001E1
:104880001124072E000C880B990B0E94BF36A996A5
:104890002CAD3DAD4EAD5FADA9970E945536082DAC
:1048A000192D960140E050E00E94A139FFEF2F1A28
:1048B0003F0AF30180892FEF621A720A1F928F93C9
:1048C00081E090E02081211180E09F938F939F925F
:1048D0008F923F922F925F924F9281EF97E09F933A
:1048E0008F93FF92EF920E941F3A8E2D9F2D0E9470
:1048F00010350E943B350FB6F894BEBE0FBEADBE5C
:10490000F0E12F16310409F077CFE1962EAD3FADDF
:10491000E1970FB6F8943EBF0FBE2DBF1EC0F12C1D
:10492000C70101969F938F938AE098E09F938F939E
:104930008E010F5F1F4F1F930F930E941F3AC801F4
:104940000E9410350E943B35C7010E947B310F90B9
:104950000F900F900F900F900F90AF968EAD9FAD70
:10496000AF970FB6F8949EBF0FBE8DBFC059DF4FF3
:104970000FB6F894DEBF0FBECDBFDF91CF911F9170
:104980000F91FF90EF90DF90CF90BF90AF909F90EE
:104990008F907F906F905F904F903F902F900895F1
:1049A0002F923F924F925F926F927F928F929F923F
:1049B000AF92BF92CF92DF92EF92FF920F931F932D
:1049C000CF93DF93CDB7DEB7C656D1090FB6F894B3
:1049D000DEBF0FBECDBF082F2DB63EB6811104C07D
:1049E00082E7898B8A8B03C08AE5898B8A8B62E098
:1049F000CE0141960E9413368091AF0A811106C004
:104A00000E94E3358091AF0A8823D1F38091AF0AE9
:104A1000882309F419C18091B40B811115C18091CB
:104A2000930B823008F42EC10E94483610E0C80172
:104A30000E946331EEE1FBE0808190E0982F8827AF
:104A400022815C01A22A8091930B90E00197039749
:104A50000CF418C16894EE24E1F8F12C26E3209FB1
:104A6000C001219F900D11249C012350344F290136
:104A7000C9010496A5969FAF8EAFA597F90133960D
:104A8000A796FFAFEEAFA79798012F5F3F4F6F96A6
:104A90003FAF2EAF6F97CE0143966B969FAF8EAF11
:104AA0006B97C70102976C011AF4EFEFCE1ADE0A7A
:104AB000D594C794F201EC0DFD1D86818111B8C01B
:104AC0006DB67EB6A596EEADFFADA5976081862E3C
:104AD000912CC40105962DB73EB7281B390B0FB694
:104AE000F8943EBF0FBE2DBF8DB79EB701966D9651
:104AF0009FAF8EAF6D9770E080E090E00E94BD3672
:104B00009B01AC0160E070E080E291E40E94AE376E
:104B1000A3966CAF7DAF8EAF9FAFA397A796EEAD78
:104B2000FFADA7978081F201EE0DFF1D66A1869F64
:104B3000B0011124072E000C880B990B0E94BF3680
:104B4000A3962CAD3DAD4EAD5FADA3970E945536FB
:104B50006C960FAD6C976D961FAD6D97940140E00C
:104B600050E00E94A139F701EE0FFF1FE25EF44F03
:104B7000008110E0102F0027FFEFEF1AFF0AF70166
:104B8000EE0FFF1FE25EF44F8081082B21E030E042
:104B900002C0220F331FCA94E2F76901C9018A21BA
:104BA0009B219F938F931F930F936D963FAD6D97AE
:104BB0003F936C968FAD6C978F936F969FAD6F9769
:104BC0009F936E96EFAD6E97EF9326E138E03F939B
:104BD0002F936B969FAD6B979F936A96EFAD6A97F5
:104BE000EF930E941F3A2DB73EB7245F3F4F0FB699
:104BF000F8943EBF0FBE2DBF012B79F481E090E009
:104C0000CA94CD2811F080E090E08A219B21892B65
:104C100021F08BE491E00E941035CE0143960E9472
:104C200010350E943B350FB6F8947EBE0FBE6DBEA8
:104C30008FEFE81AF80A8091930B90E00197E8163D
:104C4000F9060CF42ECF1EC010E0C80101969F9308
:104C50008F9389E298E09F938F93FE0131967F01B5
:104C6000FF93EF930E941F3AC7010E9410350E94E4
:104C70003B35C8010E947B310F900F900F900F9031
:104C80000F900F900FB6F8943EBE0FBE2DBECA59BE
:104C9000DF4F0FB6F894DEBF0FBECDBFDF91CF91CF
:104CA0001F910F91FF90EF90DF90CF90BF90AF904A
:104CB0009F908F907F906F905F904F903F902F903C
:104CC00008952F923F924F925F926F927F928F92B0
:104CD0009F92AF92BF92CF92DF92EF92FF920F938B
:104CE0001F93CF93DF93CDB7DEB729970FB6F89414
:104CF000DEBF0FBECDBF8987962E842E4DB65EB621
:104D00002DB63EB621E0421317C0E82EF12C81E00B
:104D100090E02FEF260F02C0880F991F2A95E2F727
:104D2000F701EE0FFF1FEE0DFF1DE755F54F208138
:104D30003181822B932B19C03985E32EF12C81E030
:104D400090E02FEF260F02C0880F991F2A95E2F7F7
:104D500080959095F701EE0FFF1FEE0DFF1DE755B3
:104D6000F54F2081318182239323F701EE0FFF1F3E
:104D7000EE0DFF1DE755F54F918380830E94CA34E5
:104D800086E38E9D80018F9D100D11240350144FDA
:104D9000F8016481A62EB12CC50149962DB73EB706
:104DA000281B390B0FB6F8943EBF0FBE2DBF8DB731
:104DB0009EB701966C01C5010596EDB7FEB7E81BDD
:104DC000F90B0FB6F894FEBF0FBEEDBF2DB73EB77F
:104DD0002F5F3F4F390170E080E090E00E94BD36C8
:104DE0009B01AC0160E070E080E291E40E94AE378C
:104DF0006D837E838F839887E92DF0E0E00FF11FAC
:104E000085A1F8016381869FB0011124072E000C53
:104E1000880B990B0E94BF362D813E814F815885AA
:104E20000E945536062D172D950140E050E00E9456
:104E3000A13981E090E0881280E09F938F937F9268
:104E40006F921F929F92C70101969F938F9386E363
:104E500098E09F938F93DF92CF920E941F3A8C2D00
:104E60009D2D0E9410350E944E352DB73EB7245F10
:104E70003F4F0FB6F8943EBF0FBE2DBF398531119D
:104E800002C08CE501C084E78983F701EE0FFF1FA4
:104E9000EE0DFF1DE755F54F908121812A839B83FD
:104EA000920F890F8C8364E0CE0101960E94133625
:104EB0008091AF0A811106C00E94E3358091AF0A4C
:104EC0008823D1F38091AF0A882379F08091B40BC5
:104ED00081110BC0C7010E9463318091930B813017
:104EE00021F480911E0B882349F0C7010E947B3179
:104EF0000FB6F8943EBE0FBE2DBE05C00FB6F89497
:104F00003EBE0FBE2DBE0FB6F8945EBE0FBE4DBEA8
:104F100029960FB6F894DEBF0FBECDBFDF91CF91BB
:104F20001F910F91FF90EF90DF90CF90BF90AF90C7
:104F30009F908F907F906F905F904F903F902F90B9
:104F40000895EF92FF920F931F93CF93DF93CDB706
:104F5000DEB766970FB6F894DEBF0FBECDBF082F41
:104F6000811103C085E7898B02C08DE5898B1A8A80
:104F70006B8B4C8B5D8B460F6989460F540F5E8B94
:104F800066E0CE0141960E9413368091AF0A8111EE
:104F900006C00E94E3359091AF0A9923D1F3809126
:104FA000AF0A8823D9F18091B40B811137C010E08A
:104FB000C8010E946331C80101969F938F938DE4CD
:104FC00098E09F938F93CE0101967C019F938F93DE
:104FD0000E941F3AC7010E9410350F900F900F904A
:104FE0000F900F900F9080911E0B882319F08F3F28
:104FF00059F00DC0000F111FF801EB55F34F82E07F
:1050000080830E944E3528C00E94523525C082EA16
:1050100093E00E9410350E943B351EC010E0C8018D
:1050200001969F938F938CE598E09F938F93CE0189
:1050300001967C019F938F930E941F3AC7010E94A3
:1050400010350E943B35C8010E947B310F900F90B4
:105050000F900F900F900F9066960FB6F894DEBFEA
:105060000FBECDBFDF91CF911F910F91FF90EF90B9
:105070000895EF92FF920F931F93CF93DF93CDB7D5
:10508000DEB765970FB6F894DEBF0FBECDBF082F11
:10509000811103C085E7898B02C08DE5898B81E092
:1050A0008A8B6B8B7C8B89898F5F680F760F7D8BEA
:1050B00065E0CE0141960E9413368091AF0A8111BE
:1050C00006C00E94E3359091AF0A9923D1F38091F5
:1050D000AF0A8823D9F18091B40B811137C010E059
:1050E000C8010E946331C80101969F938F938FE698
:1050F00098E09F938F93CE0101967C019F938F93AD
:105100000E941F3AC7010E9410350F900F900F9018
:105110000F900F900F9080911E0B882319F08F3FF6
:1051200059F00DC0000F111FF801EB55F34F83E04C
:1051300080830E944E3528C00E94523525C082EAE5
:1051400093E00E9410350E943B351EC010E0C8015C
:1051500001969F938F938FE798E09F938F93CE0153
:1051600001967C019F938F930E941F3AC7010E9472
:1051700010350E943B35C8010E947B310F900F9083
:105180000F900F900F900F9065960FB6F894DEBFBA
:105190000FBECDBFDF91CF911F910F91FF90EF9088
:1051A00008952F923F924F925F926F927F928F92CB
:1051B0009F92AF92BF92CF92DF92EF92FF920F93A6
:1051C0001F93CF93DF93CDB7DEB7AF970FB6F894A9
:1051D000DEBF0FBECDBFD82E4DB65EB6811103C067
:1051E00086E789A302C08EE589A31AA289A18BA3B1
:1051F00063E0CE0181960E9413368091AF0A81113F
:1052000006C00E94E3358091AF0A8823D1F38091D4
:10521000AF0A882309F40AC18091B40B811106C139
:1052200080911F0B8111E6C00E9448360D2D10E0C1
:10523000C8010E9463318091930B90E0019718168A
:1052400019060CF0D4C0E12CF12C98012F5F3F4FD0
:105250003DA32CA3CE0101963C0126E3209FC00173
:10526000219F900D1124FC01E350F44F1F019F0179
:105270002C5F3F4F3BA72AA7CF0103969DA78CA782
:105280005FA64EA65D2CF701EE0FFF1FE25EF44F06
:105290008081882309F49DC0CDB6DEB68701FF204A
:1052A00014F40F5F1F4F15950795C80101969F9342
:1052B0008F939DA19F93ECA1EF9323E938E03F9357
:1052C0002F937F926F920E941F3AC3010E94103564
:1052D000EAA5FBA56081A62EB12CC50105962DB7C8
:1052E0003EB7285F3F4F0FB6F8943EBF0FBE2DBFAD
:1052F000EDB7FEB7E81BF90B0FB6F894FEBF0FBE73
:10530000EDBF2DB73EB72F5F3F4F490170E080E002
:1053100090E00E94BD369B01AC0160E070E080E24D
:1053200091E40E94AE376EA37FA388A799A7ECA54E
:10533000FDA58081F101E00FF11F66A1869FB001FC
:105340001124072E000C880B990B0E94BF362EA14A
:105350003FA148A559A50E945536082D192D950144
:1053600040E050E00E94A1399F928F9227ED38E0F3
:105370003F932F937F926F920E941F3AC3010E9426
:105380001035F701EE0FFF1FE25EF44F808190E0D1
:10539000982F8827EFEFEE1AFE0AF701EE0FFF1F96
:1053A000E25EF44F2081822B9F938F932BE337E0B3
:1053B0003F932F939F928F920E941F3A882D992D91
:1053C0000E9410350E943B350FB6F894DEBE0FBE2A
:1053D000CDBE9FEFE91AF90A8091930B90E00197F7
:1053E000E816F9060CF44FCFD52C4EA45FA48D2DF2
:1053F000D7DA3AC08D2D90E001969F938F9386EA7D
:1054000098E09F938F938E010F5F1F4F1F930F9311
:105410000E941F3AC8010E9410350E943B350F9030
:105420000F900F900F900F900F901EC0ED2CF12C4D
:10543000C70101969F938F938AEB98E09F938F9378
:105440008E010F5F1F4F1F930F930E941F3AC801D9
:105450000E9410350E943B35C7014DD70F900F9029
:105460000F900F900F900F900FB6F8945EBE0FBE86
:105470004DBEAF960FB6F894DEBF0FBECDBFDF9125
:10548000CF911F910F91FF90EF90DF90CF90BF9041
:10549000AF909F908F907F906F905F904F903F90D4
:1054A0002F9008952F923F924F925F926F927F922A
:1054B0008F929F92AF92BF92CF92DF92EF92FF9224
:1054C0000F931F93CF93DF93CDB7DEB7A1970FB69E
:1054D000F894DEBF0FBECDBFE82ECDB6DEB681118B
:1054E00003C086E78F8F02C08EE58F8F81E088A38F
:1054F0008F8D8F5F89A363E0CE014F960E94133694
:105500008091AF0A811106C00E94E3359091AF0AE5
:105510009923D1F38091AF0A882309F494C0809134
:10552000B40B811190C080911F0B811165C08DB6A5
:105530009EB60E944836F12CC701C5D6EEE1FBE0CD
:10554000008110E0102F00278281082B86E38E9DBA
:10555000F0018F9DF00D1124E350F44F6481A62ECD
:10556000B12CC50105962DB73EB7281B390B0FB6D8
:10557000F8943EBF0FBE2DBF8DB79EB701961C019C
:1055800070E080E090E00E94BD369B01AC0160E0DD
:1055900070E080E291E40E94AE372B013C01B8013B
:1055A00080E090E00E94BD36A30192010E94553632
:1055B000022D132D950140E050E00E94A1393F9249
:1055C0002F929FEFE91AF90AFF92EF928EEC98E082
:1055D0009F938F938E010F5F1F4F1F930F930E9416
:1055E0001F3AC8010E9410350E943B350FB6F8944F
:1055F0009EBE0FBE8DBE44C00E2D10E0C8010196A8
:105600009F938F938BED98E09F938F939E012F5FD5
:105610003F4F59013F932F930E941F3AC5010E94AB
:1056200010350E943B35000F111FF801EB55F34F69
:1056300081E080838E2DB5DD0F900F900F900F903D
:105640000F900F901DC0F12CC70101969F938F936F
:105650008AEE98E09F938F938E010F5F1F4F1F93E9
:105660000F930E941F3AC8010E9410350E943B35DB
:10567000C70141D60F900F900F900F900F900F9091
:105680000FB6F894DEBE0FBECDBEA1960FB6F8944D
:10569000DEBF0FBECDBFDF91CF911F910F91FF9065
:1056A000EF90DF90CF90BF90AF909F908F907F90C2
:1056B0006F905F904F903F902F9008958F929F92A0
:1056C000AF92BF92CF92DF92EF92FF920F931F9310
:1056D000CF93DF93CDB7DEB7C554D1090FB6F89499
:1056E000DEBF0FBECDBF182FE82EF12C26E3829F20
:1056F000F0011124E350F44F8081882309F4F8C0AD
:10570000111105C087E722968FAF229704C08FE55D
:1057100022968FAF229723961FAE239722968FADA6
:10572000229724968FAF249763E0CE018F5B9F4F23
:105730000E9413368091AF0A811106C00E94E335A2
:105740008091AF0A8823D1F38091AF0A882309F4AE
:10575000EBC08091B40B8111E7C08091930B823034
:1057600008F4E2C00E944836C701ADD58EE18E9D97
:10577000F0018F9DF00D1124E759F34F138214822D
:105780001582819FC0011124DC01A159B34FFC0196
:10579000E558F34F1D92AE17BF07E1F78957934FB6
:1057A0001192E817F907E1F70EE11BE0F801928189
:1057B00084812EE12E9D60012F9DD00C1124960135
:1057C0002459334F49012081F4012083918382833E
:1057D000FFEFEF1AFF0AFF92EF928DEF98E09F9391
:1057E0008F939E012F5F3F4F59013F932F930E944C
:1057F0001F3AC5010E941035C4010E941035F801FE
:10580000A08592848484768560895289448936890A
:10581000208D928D848DF601E159F34F7F01F801BF
:10582000B681F701B083A1839282838274836583FA
:1058300056834783308721879287838786EA92E061
:105840000E941035C7010E941035F801A0A192A056
:1058500084A076A160A552A544A536A520A992A949
:1058600084A9F601E558F34F7F01F801B68DF701E1
:10587000B083A18392828382748365835683478336
:10588000308721879287838786EA92E00E941035CD
:10589000C7010E941035F80186A925968FAF25977C
:1058A00080AD26968FAF2697CE018C5B9F4F3BD560
:1058B000F601E759F34F8083918320915E0B2170AD
:1058C00022831F922F939F938F9388EF92E09F9351
:1058D0008F93BF92AF920E941F3AC5010E9410356C
:1058E0000E943B350FB6F894DEBF0FBECDBF1CC083
:1058F000C70101969F938F9385E099E09F938F93C3
:105900008E010F5F1F4F1F930F930E941F3AC80114
:105910000E9410350E943B35C701EDD40F900F90C7
:105920000F900F900F900F90CB5BDF4F0FB6F89456
:10593000DEBF0FBECDBFDF91CF911F910F91FF90C2
:10594000EF90DF90CF90BF90AF909F908F90089591
:105950002F923F924F925F926F927F928F929F927F
:10596000AF92BF92CF92DF92EF92FF920F931F936D
:10597000CF93DF93CDB7DEB7C158D1090FB6F894F6
:10598000DEBF0FBECDBFE4968FAFE4972DB73EB715
:10599000C058DF4F39832883C058D040C258DF4FEA
:1059A00039832883CE57D04090E0E1969FAF8EAFE9
:1059B000E19789D4E090930BF12CC701880F991FD0
:1059C000EDB7FEB7E81BF90B0FB6F894FEBF0FBE9C
:1059D000EDBF8DB79EB701963C014091930B50E00F
:1059E000440F551F6EE17BE00E94E0396701F1E052
:1059F000CF1AD10809F400C2212C312C26E3E196FC
:105A00004EAD5FADE197249FC001259F900D1124FD
:105A1000FC01E350F44FE396FFAFEEAFE39734960B
:105A2000EC96FFAFEEAFEC97E3962EAD3FADE3976C
:105A30002D5F3F4FEE963FAF2EAFEE975E0131E404
:105A4000A30EB11CAE014F595F4FAB965FAF4EAF87
:105A5000AB97E1968EAC9FACE1975FEF851A950A04
:105A6000CE0101962C017101EE0CFF1CE60CF71C17
:105A7000F7011081812F82958695869583708230FB
:105A800009F0C9C02DB73EB7E6963FAF2EAFE697F7
:105A900014FF0BC087E0E1EEF3E0DE01AF59BF4F2A
:105AA00001900D928A95E1F70AC085E0E4E1F9E002
:105AB000DE01AF59BF4F01900D928A95E1F715FFB6
:105AC00007C02FE43BE4F50131832083128208C034
:105AD00085E0E9EEF4E0D50101900D928A95E1F7B9
